:020000040800F2
:10000000984A002089010008C9010008CB010008B6
:10001000CF010008D3010008D7010008000000004C
:10002000000000000000000000000000DB010008EC
:10003000DD01000800000000DF0100086525000860
:10004000A3010008A3010008A30100083F2C000839
:10005000A3010008A3010008A3010008A3010008F0
:10006000A3010008A3010008A3010008A3010008E0
:10007000A3010008A30100089B260008012700082F
:10008000A3010008A3010008A3010008A3010008C0
:10009000E32D0008A3010008A3010008A301000844
:1000A000A3010008A3010008A3010008A3010008A0
:1000B000A3010008A3010008A3010008A301000890
:1000C000A3010008A3010008A3010008A301000880
:1000D000A3010008A3010008A3010008A301000870
:1000E000A3010008A3010008A301000800F002F822
:1000F00000F03AF80AA090E8000C82448344AAF188
:100100000107DA4501D100F02FF8AFF2090EBAE885
:100110000F0013F0010F18BFFB1A43F0010318473B
:10012000AC780000CC780000103A24BF78C878C1C1
:10013000FAD8520724BF30C830C144BF04680C60ED
:10014000704700000023002400250026103A28BF35
:1001500078C1FBD8520728BF30C148BF0B60704739
:100160001FB51FBD10B510BD04F0C7FC1146FFF749
:10017000F7FF00F035F804F0E5FC03B4FFF7F2FFF9
:1001800003BC04F0E9FC0000094880470948004727
:10019000FEE7FEE7FEE7FEE7FEE7FEE7FEE7FEE737
:1001A000FEE7FEE704480549054A064B7047000094
:1001B000D5030008ED000008402D0020984A0020DB
:1001C000402F0020402F0020704700BFFEE700BFF7
:1001D000FEE700BFFEE700BFFEE7704770477047CD
:1001E00008B50024002500200090002602F056F9F2
:1001F00002F0A3F903F074FA03F0A5FF01203B49D4
:10020000087000203A49087003F07CFA6CE001267F
:1002100064B904F037F820B10124012004F031F86A
:1002200004E000260024002004F02BF866B104F05E
:10023000BAF848B1012503202C490870022004F0C7
:1002400020F802F080F908E0002505202749087011
:10025000032004F016F802F070F9002000903FE04F
:1002600022480078032804D0052808D104F0AAFB0E
:1002700006E0012003F0E0FF04F0C6FB00E000BF51
:1002800000BF002003F0D8FF00201949087003F0D8
:1002900069FF38B117480078012803D100211448BC
:1002A00004F072FA12480078022802D0042815D10E
:1002B0000AE02CB1042003F0E4FF684604F045FB9B
:1002C000052003F0DEFF0AE025B1062003F0D9FF88
:1002D00004F05CFB072003F0D4FF00E000BF00BF88
:1002E0009DF800000028BBD091E700001700002017
:1002F00018000020B50000200CB5002001900090EF
:100300006B48006840F480306949086000BF684865
:10031000006800F4003000900198401C01900098A3
:1003200018B90198B0F5A06FF1D16148006810F4D8
:10033000003F02D00120009001E0002000900098D2
:10034000012842D15B48006840F01000594908601C
:100350000846006820F0030008600846006840F086
:1003600002000860524840685149486008464068A9
:1003700048600846406840F480604860084640682D
:1003800020F47C1048600846406840F41020486023
:100390000846006840F08070086000BF444800686C
:1003A00010F0007FFAD04248406820F00300404936
:1003B00048600846406840F00200486000BF3C4882
:1003C000406800F00C000828F9D10CBD10B5FFF70B
:1003D00093FF10BD10B53648006840F00100344965
:1003E000086008464068344908403149486008467A
:1003F0000068324908402E4908600846006820F429
:10040000802008600846406820F4FE0048604FF4F1
:100410001F008860FFF7DAFF4FF00060284908608E
:1004200010BD10B5002100200022214B5B6803F0B5
:100430000C0121B1042906D0082928D107E0214B5D
:10044000214C236027E0214B1F4C236023E0184BF5
:100450005B6803F47010164B5B6803F48032022370
:1004600003EB904022B91A4B4343174C23600DE035
:100470000F4B5B6813F4003F04D0124B4343124C04
:10048000236003E0114B43430F4C236003E00D4B0B
:100490000D4C236000BF00BF054B5B68C3F3031323
:1004A0000C4CE15C084B1B68CB40074C236010BD33
:1004B00000100240002002400000FFF8FFFFF6FE9F
:1004C00008ED00E000127A001C0000200024F40077
:1004D00000093D002000002031490143314A1160EC
:1004E000704770B5002100230F22C4780CB32D4C47
:1004F000246804F4E064C4F5E064210AC1F1040353
:10050000CA40447804FA03F1847814402143090175
:10051000254C0678A155047804F01F050124AC4051
:1005200005786D114FF0E02606EB8505C5F8004112
:1005300009E0047804F01F050124AC401B4D067847
:10054000761145F8264070BD194A0A400243154B02
:100550001B1F1A60704739B1124A121D12680243FC
:10056000104B1B1D1A6006E00E4A121D12688243D2
:100570000C4B1B1D1A607047042808D14FF0E02176
:10058000096941F004014FF0E022116107E04FF0EA
:10059000E021096921F004014FF0E0221161704768
:1005A0000000FA050CED00E000E400E080E100E06E
:1005B00080FFFF1F10B50446CA48844208D10121BC
:1005C000042000F027FB0021042000F023FB46E07C
:1005D000C548844208D10121082000F01BFB0021FE
:1005E000082000F017FB3AE0C048844208D10121FE
:1005F000102000F00FFB0021102000F00BFB2EE07C
:10060000BB48844208D10121202000F003FB0021D7
:10061000202000F0FFFA22E0B648844208D10121F0
:10062000402000F0F7FA0021402000F0F3FA16E035
:10063000B148844208D10121802000F0EBFA00216A
:10064000802000F0E7FA0AE0AC48844207D101219B
:10065000801500F0DFFA0021A01500F0DBFA10BDD4
:1006600010B50121084600F0D5FA0021012000F064
:10067000D1FA10BD2DE9F0410246002500260020E8
:1006800000230024002791F803C00CF00F0591F817
:1006900003C01CF0100F03D091F802C04CEA05050E
:1006A00091F800C0BCF1000F31D0146800202BE09D
:1006B0004FF0010C0CFA00F3B1F800C00CEA03068D
:1006C0009E4220D183004FF00F0C0CFA03F7BC437D
:1006D00005FA03FC4CEA040491F803C0BCF1280FAE
:1006E00006D14FF0010C0CFA00FCC2F814C00AE06D
:1006F00091F803C0BCF1480F05D14FF0010C0CFA82
:1007000000FCC2F810C0401C0828D1D31460B1F816
:1007100000C0BCF1FF0F34DD546800202EE000F172
:10072000080C4FF0010808FA0CF3B1F800C00CEA0D
:1007300003069E4221D183004FF00F0C0CFA03F701
:10074000BC4305FA03FC4CEA040491F803C0BCF175
:10075000280F05D100F1080C08FA0CF8C2F8148033
:1007600091F803C0BCF1480F07D100F1080C4FF01D
:10077000010808FA0CF8C2F81080401C0828CED3F3
:100780005460BDE8F0814FF6FF7101800221817055
:100790000421C17070470246002093680B4201D0CB
:1007A000012000E0002070470146886880B2704751
:1007B00002460020D3680B4201D0012000E0002057
:1007C00070470146C86880B2704701617047416157
:1007D00070470AB1016100E041617047C160704734
:1007E0004FF480320A438261816182618269826949
:1007F000704702460020424B18684FF6807318403D
:1008000040EA021008433E4B186070473D49C861FA
:100810007047F0B50A46002300240021002500F0AF
:100820000046B6F1004F02D1354EF16901E0344E79
:100830007168C0F3034583B200F44016B6F5401F5B
:1008400008D121F070612E4E766826F070662C4F2C
:100850007E6012E000F48016B6F5801F06D10326F4
:1008600006FA05F4A14341F0706106E0460D360139
:1008700003FA06F6B14341F0706122B1460D36012C
:1008800003FA06F6314300F00046B6F1004F02D1FC
:100890001B4EF16101E01A4E7160F0BD30B50022CF
:1008A0008B071C0F0F2303FA04F2154B08338C102F
:1008B00053F824309343124C08348D1044F82530FB
:1008C00023468C1053F824308C07240F00FA04F4CC
:1008D00023430B4C08348D1044F8253030BD0A49B1
:1008E0000860704700080140000C01400010014002
:1008F0000014014000180140001C0140002001408C
:100900000000014000002042DC002042DD48006879
:1009100040F00100DB49086008464068DA490840B9
:10092000D849486008460068D8490840D549086059
:100930000846006820F4802008600846406820F4DB
:10094000FE0048604FF41F0088607047CD49096879
:1009500021F48031CB4A11601146096821F48021CD
:100960001160B0F5803F03D0B0F5802F0ED106E0C6
:10097000C449096841F48031C24A116007E0C149A5
:10098000096841F4A021BF4A116000E000BF00BF28
:10099000704710B501460022002300204A11012AA9
:1009A00002D1B84C236806E0022A02D1B54C236A72
:1009B00001E0B44C636A01F01F02012494401C4220
:1009C00001D0012000E0002010BD38B500200090CB
:1009D0000024002500BF3120FFF7DBFF054600980B
:1009E000401C00900098B0F5A06F01D0002DF2D00F
:1009F0003120FFF7CEFF08B1012400E0002420469B
:100A000038BD014600209F4A106820F0F80040EAF7
:100A1000C100106070479E49086070470246002080
:100A2000984B586820F47C1042EA01031843954B18
:100A30005860704796490866704701460020914A01
:100A4000506820F003000843506070478D484068AC
:100A500000F00C007047014600208A4A506820F0E0
:100A6000F00008435060704701460020854A5068F6
:100A700020F4E06008435060704701460020814A3E
:100A8000506820F4605040EAC1005060704729B1BE
:100A90007C4A527A02437B4B5A7204E0794A527A7A
:100AA0008243784B5A7270477A4908607047014612
:100AB0000020744A506820F440400843506070475A
:100AC0000021754A11706F4A82F82010012802D067
:100AD000042808D103E001216F4A117004E00521C8
:100AE0006D4A117000E000BF00BF70476B4908609D
:100AF00070476449096A0143624A11627047674955
:100B000044390860704730B50021002200240023DA
:100B10005C4D6D6805F00C0121B1042905D0082950
:100B200023D105E05E4D056022E05E4D05601FE0CB
:100B3000544D6D6805F47012524D6D6805F48034A3
:100B4000022505EB92421CB9574D554305600BE059
:100B50004C4D6D6815F4003F03D0514D5543056071
:100B600002E0504D5543056002E04D4D056000BF69
:100B700000BF444D6D6805F0F00109094B4D6B5CF9
:100B80000568DD4045603F4D6D6805F4E061090A88
:100B9000464D6B5C4568DD4085603A4D6D6805F4F7
:100BA0006051C90A414D6B5C4568DD40C560354DFB
:100BB0006D6805F44041890B3D4D6B5CC568B5FB24
:100BC000F3F5056130BD29B12E4A526902432D4B20
:100BD0005A6104E02B4A526982432A4B5A6170479A
:100BE00029B1284A92690243264B9A6104E0254ABA
:100BF00092698243234B9A61704729B1214AD26995
:100C00000243204BDA6104E01E4AD26982431D4B45
:100C1000DA61704729B11B4AD2680243194BDA6086
:100C200004E0184AD2688243164BDA60704729B153
:100C3000144A12690243134B1A6104E0114A126903
:100C40008243104B1A61704714494039086070475D
:100C50000F49C86470470B49C87170470948406A1A
:100C600040F0807007494862704701460020054AFD
:100C700092680A4201D0012000E00020704701493B
:100C800088727047001002400000FFF8FFFFF6FE78
:100C900000004242D80042422010024080044242FA
:100CA00000127A000024F40000093D00300000200A
:100CB0004000002010B50446FB48844209D10121C0
:100CC0008803FFF7A7FF00214FF48040FFF7A2FF42
:100CD00032E0F648844209D101214804FFF7A7FF1A
:100CE00000214FF40030FFF7A2FF25E0F0488442D6
:100CF00009D101218804FFF79AFF00214FF48020D9
:100D0000FFF795FF18E0EB48844209D10121C804A0
:100D1000FFF78DFF00214FF40020FFF788FF0BE065
:100D2000E548844208D101210805FFF780FF002132
:100D30004FF48010FFF77BFF10BD2DE9F04786B020
:100D400005460E460024A24600BFA1460027B089F2
:100D500000B100BF2F462C8A4CF6FF700440F0888B
:100D600004432C82AC894EF6F3100440B0883189DC
:100D70000843718908430443AC81AC8A4FF6FF40B5
:100D80000440B0890443AC8201A8FFF7BCFEC6480A
:100D9000874202D1DDF810A001E0DDF80CA0A8899F
:100DA00010F4004F08D00AEBCA0000EB0A103168BB
:100DB0004900B0FBF1F807E00AEBCA0000EB0A10AB
:100DC00031688900B0FBF1F86420B8FBF0F0040151
:100DD0002009642101FB1089A88910F4004F08D074
:100DE000322000EBC900B0FBF1F000F00700044333
:100DF00008E0322000EB09106421B0FBF1F000F0B4
:100E00000F0004432C8106B0BDE8F0874FF4165163
:100E1000016000218180C18001810C21418100217C
:100E20008181704710B502460020108A4FF2FF03FF
:100E300018400B884C8823438C882343CC88234359
:100E40001843108210BD0021018041808180C18043
:100E5000704721B1828942F40052828104E0828984
:100E60004DF6FF731A4082817047F0B503460024A7
:100E7000002600250020A1F510676A3F00D100BFC1
:100E80001846C1F3421401F01F06012707FA06F5C0
:100E9000012C01D10C3004E0022C01D1103000E013
:100EA00014301AB107682F43076002E00768AF43A8
:100EB0000760F0BD1AB1838A0B43838202E0838A04
:100EC0008B4383827047028A4FF6F0731A40028286
:100ED000028A0A430282704782894FF2FF731A40E6
:100EE000828182890A438281704721B1828942F0DE
:100EF0000202828104E082894FF6FD731A408281EA
:100F00007047028A4FF6DF731A400282028A0A4350
:100F10000282704721B1028A42F48042028204E0D8
:100F2000028A4BF6FF731A4002827047C1F308022F
:100F30008280704701468888C0F308007047818925
:100F400041F0010181817047028BD2B20283028B92
:100F500042EA012202837047028B02F47F4202833D
:100F6000028B0A430283704721B1828A42F0200239
:100F7000828204E0828A4FF6DF731A4082827047D1
:100F800021B1828A42F01002828204E0828A4FF606
:100F9000EF731A408282704721B1828A42F00802C0
:100FA000828204E0828A4FF6F7731A408282704789
:100FB00021B1828942F40042828103E08289C2F336
:100FC0000E028281704721B1828A42F400628282DD
:100FD00004E0828A4FF2FF731A4082827047828A4D
:100FE0004FF6FB731A408282828A0A4382827047DC
:100FF00021B1828A42F00202828204E0828A4FF6A4
:10100000FD731A408282704702460020B1F5007FCE
:1010100000D100BF13880B4201D0012000E0002066
:10102000704701F40072B2F5007F00D100BFCA43DF
:101030000280704770B5024600240023002500207E
:10104000A1F510666A3E00D100BFC1F3421501F060
:101050001F03012606FA03F3012D02D196893340BE
:1010600006E0022D02D1168A334001E0968A334011
:101070000C12012606FA04F41688344013B10CB1A0
:10108000012000E0002070BD10B500220023A1F572
:1010900010646A3C00D100BF0A1201249440A3B23C
:1010A000DC43048010BD00000038014000440040D3
:1010B00000480040004C00400050004010B504467D
:1010C000BE48844208D101218014FFF7A3FD00210E
:1010D000A014FFF79FFD16E0B948844208D1012112
:1010E0000014FFF7A4FD00212014FFF7A0FD0AE083
:1010F000B448844207D10121C013FFF798FD0021B5
:10110000E013FFF794FD10BD10B50022028802F431
:1011100041520B884C8823438C882343CC8823433B
:101120000C8923434C8923438C892343CC89234353
:101130001A430280838B4FF2FF74234083830B8A10
:10114000038210BD2DE9F04F85B005460C464FF0E7
:10115000000902274FF000084FF0010B0026B246AD
:10116000A88B4FF240010840A88302202884B5F8DC
:101170001C90A068022801D100BF38E0A08810B9F7
:101180004FF0010B01E04FF0020B8D48854200D17A
:1011900000E000BF6846FFF7B6FCDDF800A0E0887D
:1011A000B0F5007F0AD14FEA1A2000EB8000400022
:1011B000A168B0FBF1F0401D86B20BE04FEA4B1086
:1011C000BAFBF0F000EB80004000A168B0FBF1F04A
:1011D000401D86B20A20B6FBF0F606F00108A6EB29
:1011E0000800C0F34F074FF6FF7000EA0828022FEF
:1011F00001DBFF2F02DD02274FF00008E08840EA04
:10120000080038432884A088A189084361880843DE
:101210002188084340F4006040EA0909A5F81C90C1
:1012200005B0BDE8F08F0021018041808180C18040
:10123000018141818181C1810721018270470021A3
:10124000018041808180C1800221816000218181F3
:10125000704721B1028842F04002028004E0028817
:101260004FF6BF731A400280704721B1828B42F45F
:101270008062828304E0828B4FF6FF331A408283C0
:10128000704730B5002400230C110125A540ABB2F6
:101290001AB185881D43858002E085889D4385803D
:1012A00030BD1AB183880B43838002E083888B436F
:1012B0008380704781817047014688897047A1F516
:1012C0007E42FF3A04D0028842F48072028004E039
:1012D00002884FF6FF631A400280704721B182886E
:1012E00042F00402828004E082884FF6FB731A40C9
:1012F0008280704702884FF2FF731A400280028892
:101300000A4302807047018841F480510180704790
:1013100021B1028842F40052028004E002884DF6B6
:10132000FF731A400280704702460020012901D055
:10133000108B00E0908A70470146088A7047B1F52B
:10134000804F04D1028842F48042028004E0028887
:101350004BF6FF731A400280704702460020138943
:101360000B4201D0012000E000207047CA430281F7
:101370007047F0B50246002000240023002501F04C
:101380000F070126BE40B4B20B1101269E40B3B236
:10139000968806EA03051689264202D00DB101207F
:1013A00000E00020F0BD10B5002201F00F04012381
:1013B000A3409AB2D343038110BD00000030014026
:1013C00000380040003C004001684FF6FE721140BA
:1013D00001600021016041608160C1608C498842E8
:1013E00008D18B490839496841F00F01884A083A09
:1013F00051608AE086491431884208D1844908390D
:10140000496841F0F001824A083A51607DE0804924
:101410002831884208D17E490839496841F4706111
:101420007B4A083A516070E079493C31884208D1E2
:1014300077490839496841F47041754A083A516062
:1014400063E073495031884208D1714908394968CD
:1014500041F470216E4A083A516056E06C4964319B
:10146000884208D16A490839496841F47001684ADC
:10147000083A516049E066497831884208D16449A8
:101480000839496841F07061614A083A51603CE0AE
:101490006049884206D1011F096841F00F01021F0F
:1014A000116032E05B491431884208D15949091F63
:1014B000096841F0F001574A121F116025E05549B3
:1014C0002831884208D15349091F096841F47061E5
:1014D000504A121F116018E04E493C31884208D131
:1014E0004C49091F096841F470414A4A121F1160B2
:1014F0000BE048495031884207D14649091F096825
:1015000041F47021434A121F1160704710B5002248
:10151000026847F6F0739A430C6A8B6823430C69A0
:1015200023434C6923438C692343CC6923434C6A8E
:1015300023438C6A23431A430260CB6843600B68E1
:1015400083604B68C36010BD002101604160816011
:10155000C160016141618161C16101624162816279
:10156000704721B1026842F00102026004E00268A3
:101570004FF6FE731A40026070471AB103680B43BE
:10158000036002E003688B4303607047416070476B
:101590000146486880B2704701460020002211F0E1
:1015A000805F03D01B4B083B1A6802E0184B083BD6
:1015B0001A680A4201D0012000E00020704710F0B4
:1015C000805F03D01349091F086002E01049083901
:1015D0004860704701460020002211F0805F03D070
:1015E0000C4B083B1A6802E0094B083B1A680A4298
:1015F00001D0012000E00020704710F0805F03D090
:101600000449091F086002E0014908394860704731
:10161000080002400804024010B501210807FFF746
:1016200006FB00214FF08050FFF701FB10BD294958
:101630000862704727490861704701460020264A22
:10164000106820F0E00008431060704723490860EC
:10165000704710B5024600201F4B186820F00300A9
:10166000104318601E4B1B6843F004031C4C23609E
:10167000012901D130BF00E020BF194B1B6823F0C6
:101680000403174C236010BD1348006840F00400A9
:10169000114908600846006840F0020008601048E0
:1016A000006840F004000E49086000BF00BF30BF72
:1016B000704701460020084A52680A4201D00120C2
:1016C00000E0002070470449096841EA8001024AAD
:1016D0001160704700000E4200700040A0000E42F2
:1016E00010ED00E029B14F4A128802434D4B1A8099
:1016F00004E04C4A128882434A4B1A80704749489A
:10170000001D008840F010004649091D0880704700
:101710004448001D00884FF6EF7108404149091DFB
:101720000880704700213F481C300188001F008856
:1017300041EA0040704700B50246FFF7E0FF100C99
:10174000384918310880091D0A80FFF7E1FF00BD04
:1017500000B50246FFF7D3FFC2F303403149083119
:101760000880091D0A80FFF7D3FF00BD00B50246BF
:10177000FFF7C5FF100C2B4920310880091D0A8096
:10178000FFF7C6FF00BD0020264910310988090770
:10179000080B2449143109880843704700BF2148C9
:1017A000001D008810F0200FF9D070471D48001D63
:1017B00000884FF6F77108401A49091D088000BFDC
:1017C0001848001D008810F0080FF9D07047014636
:1017D0000020144A121D12880A4201D0012000E0A4
:1017E000002070470F49091D098881430D4A121DC9
:1017F00011807047014600200A4A121D12880A40D3
:10180000D0B2084A12880A4202D008B1012000E092
:10181000002070470349091D09888143014A121DB0
:10182000118070470028004010B50120FFF70CFA26
:101830000020FFF709FA10BD2A49086070472949BE
:10184000091F0860704727498431086070470146C6
:101850000020254A10884FF67F4210400843224A54
:1018600010807047014600201F4A10884FF6807292
:10187000104008431C4A1080704708B500220092AF
:10188000194A2C3A0092009A02440092009A116080
:1018900008BD08B501460020009013482C38009080
:1018A0000098084400900098008808BD0D489C30BE
:1018B0000068C0B270470C480830008840F0010052
:1018C00009490831088070470648A0300068C0B256
:1018D000704705480830008840F00200024908318E
:1018E0000880704704860D422C6C004010B50446F9
:1018F000FE48844209D101214806FFF798F90021EA
:101900004FF00070FFF793F908E001218806FFF718
:101910008EF900214FF08060FFF789F910BD30B5D6
:10192000024600200023146824F0020414601468A6
:1019300044F00104146000E05B1C546814F0010FD3
:1019400003D1A3F57F44FF3CF6D1546814F0010F96
:1019500001D100206CE08C79012C04D1146844F092
:101960008004146003E0146824F080041460CC79CF
:10197000012C04D1146844F04004146003E014689E
:1019800024F0400414600C7A012C04D1146844F053
:101990002004146003E0146824F0200414604C7ADE
:1019A000012C04D1146844F01004146003E014689E
:1019B00024F0100414608C7A012C04D1146844F0D3
:1019C0000804146003E0146824F008041460CC7A5E
:1019D000012C04D1146844F00404146003E014687A
:1019E00024F0040414608C78A407CD7844EA0564DC
:1019F0000D7944EA05444D7944EA05540D886D1E7D
:101A00002C43D461146824F001041460002300E026
:101A10005B1C546814F0010F03D0A3F57F44FF3C16
:101A2000F6D1546814F0010F01D0002000E001202D
:101A300030BD10B50021837A012202FA03F1AC4ACD
:101A4000126842F00102AA4B1A60A94A1C321268BD
:101A50008A43A74B1C331A60027BCAB9A44A0C32D2
:101A600012688A43A24B0C331A604288C38842EA48
:101A700003439F4A4032847A42F834300288838894
:101A800042EA03439A4A4032847A02EBC40253602A
:101A9000027B012A19D1964A0C3212680A43944BF0
:101AA0000C331A604288038842EA0343904A40326A
:101AB000847A42F83430C288838842EA03438C4AED
:101AC0004032847A02EBC4025360C27A3AB9884A3F
:101AD000121D12688A43864B1B1D1A6006E0844A59
:101AE000121D12680A43824B1B1D1A60028932B90B
:101AF0007F4A143212688A437D4B14331A6002897C
:101B0000012A06D17A4A143212680A43784B1433F8
:101B10001A60427B012A06D1754A1C3212680A43B8
:101B2000734B1C331A60724A126822F00102704B28
:101B30001A6010BD00218171C17101724172817200
:101B4000C1728170C17003210171022141710121B3
:101B5000018070476649096841F00101644A1160DB
:101B60001146096843F60E729143614A11601146AD
:101B7000096841EA002111601146096821F001015C
:101B80001160704721B1026842F48032026003E0C4
:101B9000026822F4803202607047E1B1026842F0CC
:101BA000800202604FF4C272125842F480734FF404
:101BB000C27213504FF4CA72125842F480734FF439
:101BC000CA7213504FF4D272125842F480734FF419
:101BD000D27213501BE0026822F0800202604FF4C0
:101BE000C272125822F480734FF4C27213504FF431
:101BF000CA72125822F480734FF4CA7213504FF411
:101C0000D272125822F480734FF4D272135070477C
:101C100010B502460020936803F08063B3F1806F33
:101C200000D110E0936803F00063B3F1006F01D1BD
:101C3000012008E0936803F08053B3F1805F01D185
:101C4000022000E00420042879D002F5C07303EBE1
:101C500000131B6803F0010402F5C07303EB0013CB
:101C60001C600B7A7BB94B7A0C8843EA445302F52B
:101C7000C07404EB00142468234302F5C07404EB21
:101C80000014236010E00B7A4C6843EAC4034C7ADA
:101C9000234302F5C07404EB00142468234302F5C7
:101CA000C07404EB001423608B7A03F00F038B7273
:101CB00002F5C07303EB00135B6823F00F0402F519
:101CC000C07303EB00135C6002F5C07303EB0013F9
:101CD0005B688C7A234302F5C07404EB00146360E4
:101CE0008B7B1C064B7B44EA034403E0006400400A
:101CF000006600400B7B44EA0323CC7A234302F5C1
:101D0000C07404EB0014A3608B7C1C064B7C44EA7B
:101D100003440B7C44EA0323CC7B234302F5C074C9
:101D200004EB0014E36002F5C07303EB00131B68BF
:101D300043F0010402F5C07303EB00131C6010BDF7
:101D400010B50246002321B1012907D002290FD185
:101D500009E09068F84C00EA04030BE09068F74C47
:101D600000EA040306E09068F54C00EA040301E091
:101D7000002300BF00BFF34C181BA34216D007DCA2
:101D800083B16FF0806018180ED0022818D111E0CE
:101D9000B0F5007F10D0EC4C001909D0B0F5003F31
:101DA0000ED10BE002230DE000230BE0002309E03D
:101DB000002307E0012305E0012303E0012301E004
:101DC000002300BF00BFD8B210BD21B1012907D048
:101DD00002290FD109E0826842F0800282600AE0A5
:101DE000826842F40042826005E0826842F40002A8
:101DF000826000E000BF00BF704710B500F5D873E7
:101E000003EB01131B6803F004031372137A53B935
:101E100000F5D87303EB01131B6840F2FF7404EA6A
:101E20005353136009E000F5D87303EB01131B68EB
:101E30006FF0604404EAD303536000F5D87303EBFA
:101E400001131B6803F00203537200F5D87303EB10
:101E500001135B6803F00F03937200F5D87303EB73
:101E600001135B681B0AD37400F5D87303EB0113ED
:101E70009B68D37200F5D87303EB01139B681C0AAF
:101E8000147300F5D87303EB01139B681C0C547397
:101E900000F5D87303EB01139B681B0E937300F5D9
:101EA000D87303EB0113DB68D37300F5D87303EB2E
:101EB0000113DB681C0A147400F5D87303EB0113DB
:101EC000DB681C0C547400F5D87303EB0113DB685A
:101ED0001B0E937421B9C36843F02003C36003E071
:101EE000036943F02003036110BD21B9C26842F0C9
:101EF0002002C26003E0026942F0200202617047E2
:101F00000246002019B9D36803F0030006E0012956
:101F100003D1136903F0030000E00020704710B5FF
:101F200002460B4600204FF6FF71BBB9146824F03F
:101F3000020444F00104146000E0491E546804F0F7
:101F40000304012C01D00029F7D1546804F00304E4
:101F5000012C01D0002032E0012030E0012B13D110
:101F6000146824F00304146000E0491E546814F05F
:101F7000030F01D00029F8D1546814F0030F01D0E9
:101F800000201CE001201AE0022B17D1146824F075
:101F9000010444F00204146000E0491E546804F097
:101FA0000304022C01D00029F7D1546804F0030483
:101FB000022C01D0002002E0012000E0002010BD32
:101FC000014600200A6822F0010242F002020A6083
:101FD0004A6802F00302022A00D10120704701463C
:101FE0004FF6FF7200200B6823F002030B6000E045
:101FF000521E4B6803F00203022B01D1002AF7D1D5
:102000004B6803F00203022B00D001207047014609
:1020100000208A6902F070007047014600208A693A
:10202000100E7047014600208A69C2F307407047CE
:102030001AB143690B43436102E043698B43436137
:10204000704710B50246002011F4700F08D0936954
:10205000C1F31304234201D001202DE000202BE026
:1020600011F0807F08D05368C1F31304234201D0DC
:10207000012021E000201FE011F0006F08D09368DC
:10208000C1F31304234201D0012015E0002013E026
:1020900011F0007F08D0D368C1F31304234201D0AC
:1020A000012009E0002007E01369C1F31304234273
:1020B00001D0012000E0002010BD0022234B9942F6
:1020C00002D10023836111E0C1F3130211F0007FFC
:1020D00001D0C2600AE011F0806F01D0026105E01A
:1020E00011F0006F01D0826000E04260704702464C
:1020F00000200A4201D0012000E00020704770B5A6
:1021000004460D4600266069284272D0B5F5807FEE
:1021100069D01DDC082D42D006DC012D2DD0022D0A
:1021200031D0042D7FD134E0102D3ED0202D42D06F
:10213000402D78D145E000000300000400030008B2
:1021400000000310000100080001FFF77000F030EC
:10215000B5F5004F61D009DCB5F5007F4AD0B5F583
:10216000806F4DD0B5F5006F5DD150E0B5F5803F83
:102170002DD0B5F5003F56D12FE0A0685549FFF7A7
:10218000B6FF064651E0E0680321FFF7B0FF0646C0
:102190004BE0E0680821FFF7AAFF064645E0E0684B
:1021A0001021FFF7A4FF06463FE020690321FFF757
:1021B0009EFF064639E020690821FFF798FF064692
:1021C00033E020691021FFF792FF06462DE060689A
:1021D0000821FFF78CFF064627E060681021FFF713
:1021E00086FF064621E0A0690121FFF780FF064631
:1021F0001BE01BE0A0690221FFF779FF064614E00F
:10220000A0690421FFF773FF06460EE00BE0A0690A
:102210007021FFF76CFF064607E060680421FFF7B6
:1022200066FF064601E0002600BF00E000263046BB
:1022300070BDB1F5007F3AD00FDC202928D006DC34
:1022400001291CD004291DD0082940D11DE04029B6
:1022500021D0B1F5807F3AD126E0B1F5004F31D0E1
:1022600006DCB1F5806F25D0B1F5006F2FD124E0E9
:10227000B1F5803F12D0B1F5003F28D111E0154AE9
:10228000826025E00822C26022E01022C2601FE0C6
:10229000082202611CE01022026119E0082242605B
:1022A00016E01022426013E00422426010E0042293
:1022B00042600DE0042242600AE0002282610422B2
:1022C000426005E0002282610422426000E000BF1B
:1022D00000BF7047010101000021F84A116000BFF2
:1022E000F64909688142FBD3704708B510208DF884
:1022F000030003208DF80200A020ADF8000069461D
:10230000EF48FEF7B7F910208DF8030003208DF891
:1023100002005020ADF800006946E948FEF7AAF92E
:102320001021E748FEF751FA08BD00B591B04FF40F
:102330008060ADF8300004208DF833000CA9E0482F
:10234000FEF798F94FF40070ADF8300018208DF8C2
:10235000330003208DF832000CA9D948FEF78AF922
:102360004FF4E1300D900020ADF83800ADF83A00A0
:10237000ADF83C00ADF840000C20ADF83E000DA9D2
:10238000D048FEF7DAFC0121CE48FEF762FDCE48C8
:10239000FFF71AF8CB48001D0190CC4802900020AE
:1023A000039041F288300490002005908020069030
:1023B00000200790089009904FF400500A900020E8
:1023C0000B9001A9C048FFF7A1F801224021BD48A8
:1023D000FEF770FD0021BC48FFF7C3F80121BA48A1
:1023E000FFF7BFF80F208DF8000000208DF80100E6
:1023F0008DF8020001208DF803006846FEF771F8A1
:1024000001220221B048FFF7B8F811B000BD30B585
:10241000AF4800684FF47A72B0FBF2F1481EB0F199
:10242000807F00D31BE0481E4FF0E0225061501720
:102430000F22002807DA13071D0EA64B00F00F0429
:10244000241F1D5503E013071C0EA34B1C5400BF93
:1024500000204FF0E02290610720106100BF30BDE6
:1024600008B50220ADF8000004208DF8030002201A
:102470008DF8020069469248FEF7FCF808BD08B5E1
:102480000120ADF8000010208DF8030003208DF826
:10249000020069469148FEF7EDF808BD10B501212C
:1024A0000420FEF79DFB01210820FEF799FB012186
:1024B0000846FEF795FBFFF7E2FFFFF7D1FFFFF7B6
:1024C000A6FF01218803FEF798FB01218803FEF790
:1024D00087FB01210846FEF776FBFFF726FF012167
:1024E0000803FEF77DFBFFF700FF4FF4FA60FFF7EC
:1024F000F3FE10BD10B50020FEF7ADFA4FF480607A
:10250000FEF7B2FA0020FEF7B8FA10BD01206C49C0
:102510000831096811F0020F00D00020704700B5A3
:102520000023FFF7F3FF30B1C820FFF7D5FEFFF718
:10253000EDFF00B10123184600BD10B50121674829
:10254000FEF745F910BD10B501216448FEF73DF9CD
:1025500010BD62480C30006880F001005F490C310A
:102560000860704710B55E480068401C5C49086010
:102570005C480068401C5B4908605B480068401C80
:1025800059490860564800680A280ED3002054496B
:10259000086056480068401C544908605448006868
:1025A000401C5349086000F097FC4E480068B0F5A5
:1025B000FA7F02D300204B4908604B480068B0F511
:1025C0007A7F09D30020484908604A4800780128EA
:1025D00002D149480068804748480068401C474984
:1025E000086036480068401C3449086010BD414A04
:1025F0001170414A1060704770B505460C460CE0FA
:1026000000BF20212F48FEF7FFFC0028F9D02D48FD
:10261000FEF790FC28706D1C641E002CF0D170BD7C
:1026200070B504460D460CE021782648FEF77EFC86
:1026300000BF80212348FEF7E7FC0028F9D0641C86
:102640006D1E002DF0D170BD70B505460C461E48BC
:1026500058384566C46501211B48FEF782FF70BDEE
:1026600070B504460D461848583804658564012144
:1026700015481438FEF775FF00BF4FF40050FEF701
:102680008BFF0028F9D04FF40050FEF798FF00218F
:102690000D481438FEF765FF70BD10B54FF40050BB
:1026A000FEF77AFF012807D14003FEF788FF0021DB
:1026B00005481438FEF755FF10BD000054000020F7
:1026C000000801400038014058000240C0000020CE
:1026D0001C00002018ED00E000E400E0000C0140C8
:1026E0005C00002060000020640000204400002006
:1026F0004C000020580000207000002048000020FE
:1027000010B54FF40030FEF747FF01280FD1400409
:10271000FEF755FF0021F848FEF723FF41F288300D
:10272000F5495839C8650121F348FEF71AFF10BD75
:1027300000B587B018208DF81B0003208DF81A0013
:102740004FF42040ADF8180006A9EC48FDF792FFC1
:1027500010208DF81B0003208DF81A004FF48050D4
:10276000ADF8180006A9E548FDF784FF4FF4805145
:10277000E248FEF72AF804208DF81B0003208DF8AC
:102780001A004FF48040ADF8180006A9DB48FDF7A9
:1027900071FFDB48FEF792FC0020ADF80400ADF8B5
:1027A0000800ADF80A00ADF80C004FF40070ADF869
:1027B0000E001020ADF810000020ADF81200072028
:1027C000ADF814004FF48270ADF8060001A9CC48B2
:1027D000FEF79AFC0121CA48FEF73BFD07B000BD99
:1027E00010B54FF48051C548FDF7F1FF10BD10B58D
:1027F0004FF48051C148FDF7E8FF10BD0020C049EB
:10280000088840F03800088070470020BC490888DC
:1028100020F0380141F01000B9490880704770B5C8
:1028200004460D4600BF02212046FEF796FD002813
:10283000F9D029462046FEF73DFD00BF0121204684
:10284000FEF78BFD0028F9D02046FEF735FDC0B21B
:1028500070BD10B5FF21AA48FFF7E1FF10BD10B50C
:1028600004462146A648FFF7DAFF10BD13B59DF8D0
:102870000000A44908709DF8010048709DF802000E
:1028800088709DF80300C8709DF8040008719DF8D9
:10289000050048719DF8060088719DF80110082018
:1028A000FEF7EBFF9DF802100C20FEF7E6FF9DF807
:1028B00003101020FEF7E1FF9DF804004FF4616162
:1028C00048439DF80510C1EB011100EB81009DF814
:1028D000061044182046FEF72EFFFEF75FFF1CBDD2
:1028E0000EB50120FEF7A3FE0120FEF7E9F80A204D
:1028F000FFF7F2FC4FF48070FEF7FBF80120FEF7C3
:10290000FEF8FEF74BFFFEF751FFFEF747FF0120F1
:102910008DF8040003208DF8050005208DF80600D1
:102920000E208DF807008DF8080000208DF80900B2
:102930008DF80A00DDE90101FFF798FF012104206D
:10294000FEF79BFF03208DF8000000208DF80100AA
:102950008DF8020001208DF803006846FDF7C1FDE7
:1029600001210846FEF7BEFEFEF718FF47F6FF708E
:10297000FEF7EEFEFEF712FF0EBD7047704770B512
:102980000646FEF7CFFE04465F48B4FBF0F100FBBD
:1029900011444FF46160B4FBF0F55A490D71B4FB7A
:1029A000F0F100FB11403C21B0FBF1F555494D71B0
:1029B0003C20B4FBF0F100FB114552498D710846F3
:1029C000016831608188B1808079B07170BD2DE976
:1029D000F04F85B04FF0000B00200490FEF7A2FEF0
:1029E00005460820FEF755FFC0B28DF809000C20FF
:1029F000FEF74FFFC0B28DF80A001020FEF749FF26
:102A0000C0B28DF80B004048401E854201D24FF005
:102A1000010BADE09DF80A00012817D09DF80A00CF
:102A2000032813D09DF80A0005280FD09DF80A004E
:102A300007280BD09DF80A00082807D09DF80A0047
:102A40000A2803D09DF80A000C2824D19DF809001B
:102A50001F2806DA9DF80900401CC0B28DF8090055
:102A60007FE09DF80A000C2809D001208DF80900AC
:102A70009DF80A00401CC0B28DF80A0071E00120E8
:102A80008DF80A008DF809009DF80B00401CC0B2BB
:102A90008DF80B0065E09DF80A0002284DD19DF8E5
:102AA0000B004FF4C87190FBF1F201FB120010B95A
:102AB0000120049015E09DF80B00642190FBF1F2D9
:102AC00001FB120010B9002004900AE09DF80B00F1
:102AD000C11700EB91718910B0EB810101D1012088
:102AE00004909DF809001C2810DA9DF80900401C8C
:102AF000C0B28DF8090034E058000240000C0140DB
:102B0000003800406800002080510100049818B18E
:102B10009DF809001D2809D101208DF809009DF8B4
:102B20000A00401CC0B28DF80A001AE09DF80900A6
:102B3000401CC0B28DF8090013E09DF809001E2862
:102B400006DA9DF80900401CC0B28DF8090008E0C3
:102B500001208DF809009DF80A00401CC0B28DF8D4
:102B60000A00D548854201D32D1A01E04FF0010B30
:102B7000BBF1000F3FF44EAF9DF80B0000F5FA6477
:102B80009DF80A00032807DA9DF80A000C30C0B24D
:102B90008DF80A00601E84B29DF80A00401C00EB0C
:102BA000400040000A2190FBF1F6E11704EB91711F
:102BB0008F10642094FBF0F8800094FBF0F99DF8EE
:102BC00009009DF80A10022202FB01003044204453
:102BD0003844A0EB08004844401C1FFA80FA072044
:102BE0009AFBF0F100FB11AA0AF0FF008DF8080033
:102BF0009DF80800B14908709DF8090048709DF8DB
:102C00000A0088709DF80B00C8709DF80910082014
:102C1000FEF733FE9DF80A100C20FEF72EFE9DF8FD
:102C20000B101020FEF729FE2846FEF784FDFEF764
:102C3000B5FD6846FFF7A3FE05B0BDE8F08F10B5FF
:102C40000320012181409E4A430942F8231000BF1E
:102C50000120FEF7DFFDFEF765FD9749491E88421A
:102C600008D3FFF7B4FEFEF799FD0020FEF763FDE1
:102C7000FEF794FD01209349087010BD00B589B09E
:102C80004FF48070ADF8140048208DF8170005A9A6
:102C90008D48FDF7EFFC4FF40070ADF814001820DC
:102CA0008DF8170003208DF8160005A98648FDF75A
:102CB000E1FC01214FF4EA10FDF7ABFD8348FEF77C
:102CC00015FE2020ADF8180000208DF81A008DF8B0
:102CD0001B0001208DF81C0002208DF81D00002033
:102CE0008DF81E008DF81F008DF820008DF8210052
:102CF0008DF822008DF8230006A97448FEF70FFE18
:102D000000208DF80E008DF80F0001208DF81000C6
:102D10000020ADF80400ADF80600ADF80800ADF8ED
:102D20000A00ADF80C0001208DF8110001A8FEF793
:102D300080FE14208DF8000000208DF801008DF831
:102D4000020001208DF803006846FDF7CAFB01224E
:102D500002215E48FFF76CF909B000BDF0B585B0FF
:102D600007460D461446082C02DD002005B0F0BDD4
:102D70000097002001908DF808008DF809008DF86B
:102D80000A40002607E015F8012B3046711CCEB230
:102D90000DF10B010A54A642F5DB69464B48FEF7DC
:102DA00037FFE3E7F0B585B005460C4616466A46A0
:102DB00000214648FFF721F8009828709DF80A0086
:102DC0003070002707E03846791CCFB20DF10B01B7
:102DD000085C04F8010B9DF80A00B842F3DC05B06A
:102DE000F0BD1FB501203A4908706A4602A901A842
:102DF000FFF7D8FF0D2002A99DF8002088540A2172
:102E000002AA9DF80000401C11549DF80010891C76
:102E100002A8FFF725FC9DF80400092801D1FFF75F
:102E200098FB02212948FFF704FA1FBD10B51021B5
:102E30002848FDF7CCFC10BD2DE9F04107460C46B3
:102E4000002521E0601E401B17F80080002617E0D7
:102E50000120B04010EA080F04D080211D48FDF782
:102E6000B4FC03E080211B48FDF7B1FC2021194888
:102E7000FDF7ADFC20211748FDF7A7FC701CC6B27A
:102E8000082EE5DB681CC5B2A542DBDB40211148FA
:102E9000FDF79DFC40210F48FDF797FC40210D48B0
:102EA000FDF795FCFFF7C2FFBDE8F08110B51021DA
:102EB0000848FDF78AFC10BD805101006800002021
:102EC00080E200E050000020000C0140006400405F
:102ED0005100002000080140F749086818B1411E60
:102EE0000846F54A1160F549086818B1411E0846C0
:102EF000F24A1160704710B53220F0490860FFF7C0
:102F0000A8FC00BFFFF7A5FCFF2801D1012010BDE0
:102F1000EA4800680028F5D100BFF8E72DE9F0473E
:102F200005460C4616469A4600BFFFF759FC00BFFF
:102F3000FFF7E1FF10B98120BDE8F08715B94FF028
:102F4000950906E0082D02D14FF0870901E04FF006
:102F5000010945F04000FFF782FC200EFFF77FFCDF
:102F6000C4F30740FFF77BFCC4F30720FFF777FCAF
:102F7000E0B2FFF774FC4846FFF771FC4FF0080819
:102F800007E0FFF766FC0746FF2F00D004E0A8F13A
:102F90000108B8F1000FF4D100BFB8F1000F01D162
:102FA0008220C9E766B1BAF1000F09D000BFFFF770
:102FB00050FC06F8010BAAF101005FEA000AF6D105
:102FC000F8B2B9E72DE9F04105460E461746984696
:102FD00000231A4619463720FFF7A0FF0446012CAC
:102FE00002DD2046BDE8F08143463A463146284698
:102FF000FFF794FFF6E738B50020B1490870FFF7F6
:1030000097FB00BFFFF7F3FBFFF723FC00BFFFF7C1
:10301000F5FB002503E0FF20FFF721FC6D1C0A2DC6
:10302000F9D300231A4619461846FFF777FF0128FF
:1030300000D089E004236A464FF4D5710820FFF7D9
:103040006DFF044614F0800F00D07DE064209A49A3
:103050000860012C30D19DF80200012803D19DF8B1
:103060000300AA2800D06FE000BF00231A464FF0EB
:1030700080412920FFF7A6FF044604B906E0012C91
:1030800000DD61E08C4800680028EED100BF8A486E
:103090000068E8B304236A4600213A20FFF73EFFA8
:1030A000B0BB9DF8000010F0400F01D0042000E0FC
:1030B0000320834908702FE000231A461946372061
:1030C000FFF72CFF10F0040F0FD001207C4908708F
:1030D00000BF79480068B8B100231A46194601209C
:1030E000FFF71CFF0028F4D10EE00220744908709D
:1030F00000BF7148006838B100231A4619462920DC
:10310000FFF760FF0028F4D16B48006800B900E0C9
:1031100002E000206A49087069480078012807D059
:1031200067480078022803D06548007803280AD150
:1031300000231A464FF400711020FFF7EFFE10B184
:1031400000205F49087000BF00BFFFF750FBFFF78A
:1031500080FB00BF5A48007808B9002038BDFFF74F
:1031600054FB0120FAE72DE9F04106460F460A20FC
:103170005149086000BFFFF76CFB0446FE2C00D1EC
:1031800003E04D4800680028F5D100BFFE2C02D0B6
:103190000020BDE8F081002503E0FFF75AFB7055E1
:1031A0006D1CBD42F9D3FFF754FBFFF752FB012022
:1031B000EFE72DE9FF414FF000080423414A0021C9
:1031C0003A20FFF7ABFE00B1CAE000231A461946C9
:1031D0000A20FFF7A3FE28B910213A48001DFFF787
:1031E000C2FF00B9BCE000231A4619460920FFF7C8
:1031F00095FE28B9102133481430FFF7B4FF00B909
:10320000AEE04FF400702F490C390860084690F882
:1032100020000121B1EB901F17D12A480C3890F8FB
:103220002700010427480C3890F8280001EB002102
:1032300024480C3890F829000844C0F31504601C99
:10324000800220490C3948602BE01E480C3890F869
:10325000260081021B480C3890F8270001EB800102
:1032600018480C3890F8280001EBA010C0F30B04AC
:1032700014480C3890F829008007410F11480C3889
:1032800090F82A0001EBD0160E480C3890F8250073
:1032900000F00F07B919C91F601C884009490C3993
:1032A00048600748007801282BD002283ED0032828
:1032B0000AD004284FD108E0780000207C000020CC
:1032C000740000205414002000BF01236A4600212E
:1032D0000D20FFF777FE20B910216846FFF743FF66
:1032E00000B93DE0302502E0FFF7B3FA6D1E002D76
:1032F000FAD19DF80A0001111020884068498860C1
:103300002AE0674890F82A008007C10E644890F8C8
:103310002B0001EB5010401C614991F82A10C1F3B9
:103320008401491C48435E49886015E05C4890F878
:103330002A008006410E5A4890F82B0001EBD0106D
:10334000401C574991F82D100122C2EBA111884071
:103350005349886000E003E000BF4FF0010800BF60
:1033600000BFFFF744FAFFF774FA00BF404604B00D
:10337000BDE8F0812DE9F04106460F4690463846FB
:10338000FFF76DFA002503E0705DFFF768FA6D1C2A
:103390004545F9D3FF20FFF762FAFF20FFF75FFAF8
:1033A000FFF757FA00F00F00052802D00020BDE813
:1033B000F08114203B49086000BFFFF74AFA044639
:1033C000FF2C00D103E0374800680028F5D100BF8A
:1033D000FF2C01D10120EAE70020E8E770B50446A0
:1033E0000D4600263048844201D2322C01D80020FC
:1033F00070BD2E480078042800D0640200231A46CD
:1034000021461820FFF78AFD30B94FF40072FE21E3
:103410002846FFF7AFFF01263046E9E72DE9F041E6
:1034200004460F464FF000081F48844201D2322C58
:1034300002D80020BDE8F0811C480078042800D0A4
:10344000640200231A4621461120FFF767FDF8B9F0
:103450000A201449086000BFFFF7FBF90546FE2D5E
:1034600000D103E00F4800680028F5D100BFFE2D11
:103470000ED1002603E0FFF7ECF9B855761CB6F53F
:10348000007FF8D3FFF7E5F9FFF7E3F94FF0010804
:1034900000BFFFF7ACF9FFF7DCF900BF4046C9E712
:1034A000481400207800002040420F0074000020E3
:1034B0000146087800064A7800EB02408A7800EB63
:1034C0000220CA7810447047F0B503461446002B1A
:1034D00004DA2D2601F8016B5B4202E0202601F898
:1034E000016B0020012203E002EB82067200401C07
:1034F000A042F9D3B3FBF2F602FB163500200DE033
:103500000A26B2FBF6F2B5FBF2F60A27B6FBF7FC89
:1035100007FB1C66303601F8016B401CA042EFD35C
:10352000F0BDFFB58DB017461D46169E1C226B4997
:1035300006A801F0ADFA9DF8340006A951F8200064
:1035400000788DF814009DF8340051F82000407880
:103550008DF815009DF8340051F8200080788DF822
:1035600016009DF835000A2190FBF1F03030C0B212
:103570008DF80C009DF8350090FBF1F201FB120074
:103580003030C0B28DF80D002F208DF80E009DF860
:10359000360090FBF1F03030C0B28DF80F009DF88E
:1035A000360090FBF1F201FB12003030C0B28DF812
:1035B00010002F208DF811009DF8370090FBF1F0DE
:1035C0003030C0B28DF812009DF8370090FBF1F258
:1035D00001FB12003030C0B28DF813009DF83800A6
:1035E00090FBF1F03030C0B28DF804009DF8380047
:1035F00090FBF1F201FB12003030C0B28DF80500F3
:103600003A208DF806009DF8390090FBF1F030303B
:10361000C0B28DF807009DF8390090FBF1F201FB74
:1036200012003030C0B28DF808003A208DF8090041
:103630009DF83A0090FBF1F03030C0B28DF80A00EE
:103640009DF83A0090FBF1F201FB12003030C0B25D
:103650008DF80B0000203070012F2DD1002405E0E3
:1036600005A8005D05F8010B601CC4B2032CF7DB54
:103670002C2005F8010B601C3070002405E003A825
:10368000005D05F8010B601CC4B2082CF7DB2C2090
:1036900005F8010B30782044401C3070002405E010
:1036A00001A8005D05F8010B601CC4B2082CF7DB13
:1036B0003078204430700EE0032F0CD1002405E058
:1036C00001A8005D05F8010B601CC4B2082CF7DBF3
:1036D00030782044307011B0F0BD0000684B000815
:1036E000002003E00021314A1154401C4028F9D346
:1036F000704710B540212D48FFF79EFB0A20FEF7CA
:10370000EBFD10BD10B5002404E0FF20274908554B
:10371000601C84B2402CF8DBFFF7EBFF41F28830ED
:10372000FEF7DAFDFFF7C2FB002404E000201F498A
:103730000855601C84B2402CF8DBFFF7DAFF40F636
:10374000B830FEF7C9FDFFF7B1FB10BD30B50C4630
:103750000346C51700EB5575C5F3CF01C51700EB40
:103760005575ED10A0EBC505AAB2C2F107039AB2D8
:103770000E4B5B5C01259540AB430C4D6B542B46C7
:103780005B5C04FA02F52B43084D6B5430BD074ACD
:10379000115470470146002005E011F8012B034B3E
:1037A0001A54421CD0B24028F7DB7047781400202E
:1037B0002DE9F0470746884614461D464FF000099C
:1037C0000FE0002605E014F8010BF9498855701C3C
:1037D000C6B24645F7DBFFF78CFF09F1010000F0A8
:1037E000FF09B945EDDB0DB9BDE8F087FFF75EFBDA
:1037F0002846FEF771FD00BFF6E72DE9FF4F95B0B3
:103800000E4600240025A046002014908246139006
:1038100000278146129006B90126002449E0159838
:1038200050F8240006A901EBC401486006A800EB8B
:10383000C4004068407806A901EBC40149680978D2
:1038400000EB012080B2139006A800EBC400406892
:10385000C07806A901EBC4014968897800EB012012
:1038600006A901EBC401488006A800EBC40041880A
:10387000139890FBF1F006A921F8340006A800EB9C
:10388000C4004068001D01EBC401486006A800EBBD
:10389000C4004088384487B2B9F1000F04D006A8AC
:1038A00030F83400484502DA06A830F83490601C3D
:1038B000C4B2B442B3DB9DF86000A8B1012802D0C5
:1038C000022812D106E0402F03DAC7F14000C0B24F
:1038D00014900BE0402F06DAC7F1400000EBD071E6
:1038E000C1F34701149101E000E000BF00BF9DF863
:1038F0005D1001EB81018800FEF7EEFC9DF85C0095
:10390000401CC0B28DF85C0065E0002407E006A80A
:1039100000EBC40040684DF82400601CC4B2B442FF
:10392000F5DB002443E0002504E00020A0494855D1
:10393000681CC5B2402DF8DB14981290002530E0C9
:103940005DF825B04FF0000811E01298404400F0F7
:10395000FF0ABAF1400F05DA1BF8010B944901F890
:103960000A0000E009E008F1010000F0FF0806A8E5
:1039700000EBC50040884045E7DC00BF5DF825004E
:1039800006A901EBC501498808444DF8250006A8A1
:1039900000EBC500817812980844C0B21290681CF0
:1039A000C5B2B542CCDBFFF7A4FE601CC4B24C45E7
:1039B000B9DB9DF85E0040B1FFF778FA9DF85E1024
:1039C00001EB81018800FEF787FC9DF85C00401E3A
:1039D000C0B28DF85C009DF85C00002895D19DF880
:1039E0005F0040B1FFF762FA9DF85F1001EB8101C3
:1039F0008800FEF771FC19B0BDE8F08F704730B554
:103A0000E9B005464FF4CA726A4904A801F040F8CB
:103A100004A8019001AC05208DF808000F208DF856
:103A200009008DF80A0019208DF80B0001212046AD
:103A3000DDE90223FFF7E1FE69B030BD30B5E9B042
:103A400005464FF4CA725C4904A801F021F804A8A5
:103A5000019001AC05208DF808000F208DF80900B9
:103A60008DF80A0019208DF80B0001212046DDE9B0
:103A70000223FFF7C2FE69B030BD30B5E9B005469C
:103A80004FF4CA724D4904A801F002F804A801904D
:103A900001AC05208DF808000F208DF809008DF885
:103AA0000A0019208DF80B0001212046DDE90223D0
:103AB000FFF7A3FE69B030BD30B5E9B005464FF45D
:103AC000CA723F4904A800F0E3FF04A8019001ACCA
:103AD00005208DF808000F208DF809008DF80A00E8
:103AE00019208DF80B0001212046DDE90223FFF7A4
:103AF00084FE69B030BD30B5E9B005464FF4CA72F6
:103B0000304904A800F0C4FF04A8019001AC0520CE
:103B10008DF808000F208DF809008DF80A00192093
:103B20008DF80B0001212046DDE90223FFF765FE39
:103B300069B030BD30B5E9B005464FF4CA722249CC
:103B400004A800F0A5FF04A8019001AC05208DF8A1
:103B500008000F208DF809008DF80A0019208DF853
:103B60000B0001212046DDE90223FFF746FE69B084
:103B700030BD30B5E9B005464FF4CA72134904A808
:103B800000F086FF04A8019001AC05208DF8080024
:103B90000F208DF809008DF80A0019208DF80B0010
:103BA00001212046DDE90223FFF727FE69B030BD81
:103BB00078140020844B0008184D0008AC4E000813
:103BC00040500008D451000868530008FC54000815
:103BD00030B5E9B005464FF4CA72F84904A800F0C0
:103BE00057FF04A8019001AC01208DF808000F20B8
:103BF0008DF809008DF80A0019208DF80B000121BD
:103C00002046DDE90223FFF7F8FD69B030BD30B58D
:103C1000E9B005464FF4CA72E94904A800F038FF3C
:103C200004A8019001AC01208DF808000F208DF848
:103C300009008DF80A0019208DF80B00012120469B
:103C4000DDE90223FFF7D9FD69B030BD30B5E9B039
:103C500005464FF4CA72DB4904A800F019FF04A816
:103C6000019001AC01208DF808000F208DF80900AB
:103C70008DF80A0019208DF80B0001212046DDE99E
:103C80000223FFF7BAFD69B030BD30B5E9B0054693
:103C90004FF4CA72CC4904A800F0FAFE04A80190BF
:103CA00001AC01208DF808000F208DF809008DF877
:103CB0000A0019208DF80B0001212046DDE90223BE
:103CC000FFF79BFD69B030BD30B5E9B005464FF454
:103CD000CA72BE4904A800F0DBFE04A8019001AC42
:103CE00001208DF808000F208DF809008DF80A00DA
:103CF00019208DF80B0001212046DDE90223FFF792
:103D00007CFD69B030BD30B5E9B005464FF4CA72EC
:103D1000AF4904A800F0BCFE04A8019001AC01204A
:103D20008DF808000F208DF809008DF80A00192081
:103D30008DF80B0001212046DDE90223FFF75DFD30
:103D400069B030BD30B5E9B005464FF4CA72A1493B
:103D500004A800F09DFE04A8019001AC01208DF89C
:103D600008000F208DF809008DF80A0019208DF841
:103D70000B0001212046DDE90223FFF73EFD69B07B
:103D800030BD30B5E9B005464FF4CA72924904A877
:103D900000F07EFE04A8019001AC01208DF808001F
:103DA0000F208DF809008DF80A0019208DF80B00FE
:103DB00001212046DDE90223FFF71FFD69B030BD78
:103DC00030B5ADF2C44D054640F2B442834904A873
:103DD00000F05EFE04A8019001AC01208DF80800FF
:103DE0000F208DF809008DF80A0019208DF80B00BE
:103DF00001212046DDE90223FFF7FFFC0DF2C44D4F
:103E000030BD30B5E9B005464FF4CA72744904A814
:103E100000F03EFE04A8019001AC01208DF80800DE
:103E20000F208DF809008DF80A0019208DF80B007D
:103E300001212046DDE90223FFF7DFFC69B030BD38
:103E400030B5ADF5137D05464FF40F72654904A8F2
:103E500000F01EFE04A8019001AC01208DF80800BE
:103E60000F208DF809008DF80A0019208DF80B003D
:103E700001212046DDE90223FFF7BFFC0DF5137D8C
:103E800030BD30B5ADF5137D05464FF40F72564980
:103E900004A800F0FDFD04A8019001AC01208DF8FC
:103EA00008000F208DF809008DF80A0019208DF800
:103EB0000B0001212046DDE90223FFF79EFC0DF5F2
:103EC000137D30BD30B5ADF5137D05464FF40F724F
:103ED000464904A800F0DCFD04A8019001AC0120D3
:103EE0008DF808000F208DF809008DF80A001920C0
:103EF0008DF80B0001212046DDE90223FFF77DFC50
:103F00000DF5137D30BD30B5E9B005464FF4CA72EA
:103F1000374904A800F0BCFD04A8019001AC0420BE
:103F20008DF8080005208DF809008DF80A008DF83D
:103F30000B0001212046DDE90223FFF75EFC69B09A
:103F400030BD30B5E9B005464FF4CA721D4904A82A
:103F500000F09EFD04A8019001AC04208DF808003B
:103F600005208DF809008DF80A008DF80B0001215D
:103F70002046DDE90223FFF740FC69B030BD30B5D3
:103F8000E9B005464FF4CA721A4904A800F080FD52
:103F900004A8019001AC04208DF8080005208DF8DC
:103FA00009008DF80A008DF80B0001212046DDE99B
:103FB0000223FFF722FC69B030BD000090560008D4
:103FC00024580008B85900084C5B0008E05C000861
:103FD000745E0008086000089C61000830630008F7
:103FE000E467000878690008B46B0008F06D000809
:103FF0002C700008C071000830B5E9B005464FF4D8
:10400000CA723D4904A800F043FD04A8019001AC28
:1040100003208DF8080000208DF809000A208DF893
:104020000A0032208DF80B0001212046DDE9022331
:10403000FFF7E3FB69B030BD30B5E9B005464FF49A
:10404000CA722E4904A800F023FD04A8019001AC17
:1040500005208DF8080000208DF809000A208DF851
:104060000A0032208DF80B0001212046DDE90223F1
:10407000FFF7C3FB69B030BD30B5E9B005464FF47A
:10408000CA721F4904A800F003FD04A8019001AC06
:1040900005208DF8080000208DF809000A208DF811
:1040A0000A0032208DF80B0001212046DDE90223B1
:1040B000FFF7A3FB69B030BD30B5E9B005464FF45A
:1040C000CA72104904A800F0E3FC04A8019001ACF6
:1040D00005208DF8080000208DF809000A208DF8D1
:1040E0000A0032208DF80B0001212046DDE9022371
:1040F000FFF783FB69B030BD54730008E874000813
:104100007C7600081078000810B5002403E0002039
:1041100054490855641C41F288308442F7D3002189
:104120005148FDF71EFA41F288304F495839C865A9
:1041300001214D48FDF715FA00204C4908704880D0
:104140000871487110BD10B5FFF7DEFF10BD46487D
:104150005838C06DA0F59851883901D100207047BA
:104160000120FCE770B500253F485838C06D41F28A
:1041700088310C1A44B13E48007828B901203C49E6
:10418000087000203B4908603848007810B10128C9
:104190003CD121E0052C1ED332480078022816D1EC
:1041A00030484078882812D12E48807810B92D48A0
:1041B000C07860B12B48C178807801EB00202B4992
:1041C00048802848007908710120087003E04FF406
:1041D0007A70284908601DE024484088A04214D81D
:1041E00022484088401E1F49085C032809D1012548
:1041F000481D1E49886000201E4908601C4908703F
:1042000003E04FF47A701B49086003E0002017496F
:10421000087000BF00BF1648007848B11548006814
:10422000B0F57A7F04D3FFF76FFF002010490870C4
:1042300011480570284670BD10B504462146AFF2FE
:10424000DB00FEF7D4F910BD38B504460BA00068BA
:10425000009024B904216846FEF7E2F900E000BFAF
:1042600000BF38BDC000002058000240B814002034
:10427000B400002048000020B50000200A54300D92
:104280007047704770B501250026002417E0641CB4
:10429000642C00D30025FEF7AEFE012805D1FEF701
:1042A00088FF012800D1012600250020D849086098
:1042B00000BFD74800680528FBD9FEF74AF9002D52
:1042C000E5D1304670BD012070472DE9F05F814691
:1042D0000C4615461E464FF0000BB9F1070F14D2DD
:1042E000DFE809F0040506070B1112000EE00DE0EF
:1042F0000CE0C8484069044408E0C6488169807FF2
:1043000004FB001402E001E000E000BF00BFC2496E
:104310002046FFF783F8012842D1BF4890F8FF01FB
:1043200056283DD1308830B9BB484078BA49097821
:1043300000EB01203080B6F800804FF0010BDA4628
:1043400020E0002705E038467F1CB349085C05F8EB
:10435000010BB7F5FF7FF6D9A8F2FF101FFA80F81E
:1043600004EB0A00AC49FFF759F8012807D1AA4825
:1043700090F8FF01562802D10AF1010A02E04FF03D
:10438000000B02E0B8F5007FDBD200BF002705E09C
:1043900038467F1CA049085C05F8010B4745F7D358
:1043A0005846BDE8F09F38B5002540F2FF10009058
:1043B0000020984981F820006B46974A6421FFF756
:1043C00084FF002831D001259348007841282CD162
:1043D00091484078432828D18F488078412824D1BB
:1043E0008D48C0784C2820D18B48001DFFF760F81D
:1043F000044614B18748446000E000258648083030
:10440000FFF756F8044614B18248446100E00025E5
:1044100081480C30FFF74CF8044614B17D488461A4
:1044200000E0002564207B49086095B300257948A9
:104430006B46794A41680020FFF747FF48B376484A
:104440000078412825D174484078532821D17248FA
:10445000807845281DD17048C078542819D16E48FD
:1044600001796C4801736C4841796A4841736A4824
:104470008179684881736848C1796648C173664824
:10448000407A6549097A00EB012081B26148816078
:1044900001250DB300255F486B465F4A4169002046
:1044A000FFF713FFC0B15C480078412814D15A4887
:1044B0004078532810D15848807850280CD156485D
:1044C000C078542808D1544840795349097900EB01
:1044D000012050490874012535B300254D486B462D
:1044E0004D4A81690020FFF7F0FEE8B14A480078A4
:1044F000412819D148484078492815D14648807844
:104500004D2811D14448C07847280DD14248407900
:104510004149097900EB012081B23E4881833E4840
:1045200081793C48817701251DB10120394981F805
:104530002000284638BD2DE9F05F81460E4617461B
:104540001D464FF0000B288840F2FF11B0FBF1FA36
:10455000B9F1070F14D2DFE809F0040506070B11C3
:1045600012000EE00DE00CE02A484069064408E025
:1045700028488169807F06FB001602E001E000E028
:1045800000BF00BF4FF0010B4FF000081AE00024FD
:1045900005E017F8012B2046641C1F490A54B4F5A6
:1045A000FF7FF6D956201C49085506EB0800FEF798
:1045B00015FF08B94FF0000B2888A0F2FF102880E3
:1045C00008F10108D045E2D3288800281DDD002429
:1045D00005E017F8012B2046641C0F490A5428886F
:1045E000A042F6D804E000222046641C0A490A547E
:1045F000B4F5FF7FF7D956200749085506EB0800A8
:10460000FEF7ECFE08B94FF0000B5846BDE8F09FEE
:1046100044000020CC160020C414002070472DE96F
:10462000F04F91B0064600201090804600250F9074
:104630008146824600270B9004900120029030783A
:1046400010907078401CC0B2039000BF96E04FF00D
:10465000020A4FF0000889E006EB0A0420780228DD
:104660007BD160788DF83000A0788DF831009DF80E
:104670003000401E215C0CA841719DF83000801E66
:10468000215C0CA801719DF83000C01E215C0CA8B3
:10469000C1709DF83000001F205C8DF832009DF83D
:1046A0003000401F215C0CA881719DF83100012869
:1046B00053D100279DF83010A1F1080000EBD07114
:1046C000C1F347010F91002523E06800001D215C24
:1046D0006800C01C205C01EB002080B20B90002021
:1046E0000490E048384405A941F8250005A850F891
:1046F000252004AB04200B99FFF7E7FDBDF810005F
:10470000384487B241F2EC30874200D304E0681CA1
:10471000C5B20F988542D8DB00BF0DF1140BDDF850
:1047200032000090BDF83600ADF804002946584626
:10473000DDE90023FFF761F8CB48007801280CD1B0
:104740000123002211461046FFF732F80020C64927
:10475000087011B0BDE8F08FFFE79DF830005044BD
:104760001FFA80FA08F1010000F0FF081098804558
:10477000FFF672AF09F1010000F0FF0903988145CF
:10478000FFF665AF0298E4E72DE9FF4704460D46C2
:104790004FF00008B54903C9CDE90101B4480079DB
:1047A0000A2876D2DFE800F0C305062E555B769A1C
:1047B000B6BEBDE0207820BBAE4890F820000128AE
:1047C0001FD1AC48007BAA4989680978884218D172
:1047D000A848407BA64989684978884211D1A548F4
:1047E000807BA3498968897888420AD1A148C07B27
:1047F0009F498968C978884203D1042020704FF00E
:10480000010895E0207818BB9B480068007898491B
:104810008968097888421BD1974800684078944994
:1048200089684978884213D1934800688078904914
:104830008968897888420BD18F480068C0788C4994
:104840008968C978884203D1022020704FF001089E
:104850006EE087498868FFF7E2FE804668E02078CE
:10486000B0B18348806800788DF805008048806882
:1048700040788DF804007E488068801C0090E946EE
:1048800001214846DDE90123FEF7B7FF4FF001089B
:104890004EE04CE0207802281FD1754880680078EF
:1048A000000673498968497800EB014070498968BE
:1048B000897800EB01206E498968C97846186C48F0
:1048C00040880C3880B2039069488068021D03ABB1
:1048D00031460020FFF72FFE804629E0207802288D
:1048E00017D163488068407861498968097800EB8E
:1048F00001275F4840880B3880B203905C49896883
:10490000CA1C5B498968887803AB3946FFF713FEF8
:1049100080460DE02078022803D14FF001080120E5
:10492000287005E0002020704FF0010800E000BF73
:1049300000BFFFF7E9FBB8F1010F02D10020FFF73C
:1049400083FC404604B0BDE8F08738B50446002536
:104950000220009000204949086010E0FFF702FCA7
:1049600068B121466846FFF70FFF38B10020434980
:1049700008609DF8000010B9012500E0012525B967
:104980003E480068B0F57A7FE8D938BD38B50024D4
:104990000420009000203949086010E0FFF7E2FB96
:1049A00068B100216846FFF7EFFE38B100203349B7
:1049B00008609DF8000010B9012400E00124002CDB
:1049C000ECD038BD10B500202C4908600BE02C4815
:1049D00002780078401C2A4B18702A4850F82210A0
:1049E0004FF47A708847264800780D2804DA234867
:1049F0000068B0F5FA7FEAD9214800780D2802DB7B
:104A000000201F49087010BD38B5002000901B49D8
:104A1000086014E04FF4FF7000906B461A4A1B4880
:104A200001780320FFF751FC04461CB11648FFF73C
:104A3000F6FD044615480078401C144908700D48DE
:104A4000007C12490978884201DB012CE2D0094838
:104A5000007C0E490978884202DA01200B4908706F
:104A600038BD0000F0180020B5000020A47900082F
:104A7000B8140020CC160020B80000204C00002004
:104A8000BC00002080000020F0160020BD000020A7
:104A900010B5203AC0F00B80B1E81850203AA0E8D9
:104AA0001850B1E81850A0E81850BFF4F5AF5FEA0D
:104AB000027C24BFB1E81850A0E8185044BF18C9C0
:104AC00018C0BDE810405FEA827C24BF51F8043B67
:104AD00040F8043B08BF7047D20728BF31F8023BBB
:104AE00048BF11F8012B28BF20F8023B48BF00F84F
:104AF000012B7047704770477047754600F028F8E3
:104B0000AE4605006946534620F00700854618B0BA
:104B100020B5FBF747FBBDE820404FF000064FF003
:104B200000074FF000084FF0000B21F00701AC46E2
:104B3000ACE8C009ACE8C009ACE8C009ACE8C00901
:104B40008D4670470446AFF300802046FBF715FB07
:104B500000487047DC2C002001491820ABBEFEE75E
:104B60002600020070470000B9790008B5790008F6
:104B7000AD790008A9790008C1790008B179000869
:104B8000BD7900080194000800000000000000004A
:104B90000000000000000000000000000000000015
:104BA0000000000000000000000000000000000005
:104BB00000000000000000000000000000000000F5
:104BC00000000000000000000000000000000000E5
:104BD00000000000000000000000000000000000D5
:104BE00000000000000000000000000000000000C5
:104BF00000000000000000000000000000000000B5
:104C000000000000000000000000000000000000A4
:104C100000000003E00000000000000FF8000000AA
:104C20000000003FFE000000000000FFFF00000049
:104C3000000001FFFFC00000000007FFFFE00000D0
:104C400000000FFFFFF0000000000FFFFFF8000062
:104C500000001FFFFFFC000000003FFFFFFC000002
:104C600000003FFFFFFE000000003FFFFFFE0000CE
:104C700000003FFFFFFE000000003FFFFFFE0000BE
:104C800000003FFE7FFE000000001FFC3FFC000014
:104C900000000FF80FF80000000003E003E0000040
:104CA0000000000000000000000000000000000004
:104CB00000000000000000000000000000000000F4
:104CC00000000000000000000000000000000000E4
:104CD00000000000000000000000000000000000D4
:104CE00000000000000000000000000000000000C4
:104CF00000000000000000000000000000000000B4
:104D000000000000000000000000000000000000A3
:104D100000000000000000000194000800000000F6
:104D20000000000000000000000000000000000083
:104D30000000000000000000000000000000000073
:104D4000000000000000000004000000000000005F
:104D50001F800000000000007FC000000000000174
:104D6000FFF0000000000003FFF800000000000753
:104D7000FFFC000000000007FFFE00000000000F25
:104D8000FFFE00000000000FFFFF00000000000F0A
:104D9000FFFF00000000000FFBFE00000000000706
:104DA000F0FC000000000000803000000000000067
:104DB00000000000000000000000000000000000F3
:104DC00000000000000000000000000000000000E3
:104DD00000000000000000000000000000000000D3
:104DE00000000000000000000000000000000000C3
:104DF00000000000000000000000000000000000B3
:104E000000000000000000000000000000000000A2
:104E10000000000000000000000000000000000092
:104E200000000000000000FC00000000000003FE85
:104E300000000000000007FF8000000000001FFFCE
:104E4000C000000000003FFFE000000000003FFF46
:104E5000F000000000007FFFF000000000007FFF76
:104E6000F800000000007FFFF800000000007FDF76
:104E7000F000000000003F87E000000000000E018D
:104E800080000000000000000000000000000000A2
:104E90000000000000000000000000000000000012
:104EA0000000000000000000000000000194000865
:104EB00000000000000000000000000000000000F2
:104EC00000000000000000000000000000000000E2
:104ED00000000000000000000000000000000000D2
:104EE00000000000000000000000000000000000C2
:104EF00000000000000000000000000000000000B2
:104F000000000000000000000000000000000000A1
:104F10000000018001800000000001C0038000004B
:104F2000000003C003C00000000007E007E000002D
:104F3000000007E007E0000000000FF00FF00000A5
:104F400000000FF00FF0000000001FF81FF8000035
:104F500000001FF81FF8000000003FFC3FFC0000AD
:104F600000003FFE7FFC000000007FFE7FFE00008F
:104F70000000FFFFFFFF0000000000000000000035
:104F8000000000018000000000000001800000001F
:104F900000000003C000000000000003E00000006B
:104FA00000000007E00000000000000FF00000001B
:104FB0000000000FF00000000000001FF8000000DB
:104FC0000000001FF80000000000003FFC0000008F
:104FD0000000003FFC0000000000007FFE00000019
:104FE0000000007FFF000000000000000000000043
:104FF00000000000000000000000000000000000B1
:1050000000000000000000000000000000000000A0
:105010000000000000000000000000000000000090
:105020000000000000000000000000000000000080
:105030000000000000000000000000000000000070
:1050400001940008000000000000000000000000C3
:105050000000000000000000000000000000000050
:105060000000000000000000000000000000000040
:10507000000000000000000000000000000000012F
:10508000000000000000000180000000000000039C
:105090008000000000000003C000000000000007C6
:1050A000C000000000000007E00000000000000F4A
:1050B000E00000000000000FF00000000000001FF2
:1050C000F00000000000001FF80000000000003F9A
:1050D000F80000000000003FFC0000000000007F1E
:1050E000FC0000000000007FFE000000000000FF48
:1050F000FE000000000000FFFF000000000001FFB4
:10510000FF000000000001FFFF800000000001FF21
:10511000FF800000000001FFFF800000000000FF92
:10512000FF000000000000FFFF0000000000007F03
:10513000FE0000000000007FFE0000000000003FB5
:10514000FC0000000000003FF80000000000001F0D
:10515000F80000000000001FF00000000000000F39
:10516000F00000000000000FE00000000000000759
:10517000E000000000000007C00000000000000385
:10518000C0000000000000038000000000000001DB
:10519000800000000000000100000000000000008E
:1051A00000000000000000000000000000000000FF
:1051B00000000000000000000000000000000000EF
:1051C00000000000000000000000000000000000DF
:1051D0000000000001940008000000000000000032
:1051E00000000001800000000000000180000000BD
:1051F00000000003C000000000000003C000000029
:1052000000000007E000000000000007E0000000D0
:105210000000000FF00000000000000FF000000090
:105220000000001FF80000000000001FF800000050
:105230000000003FFC0000000000003FFC000000F8
:105240000000007FFE0000000000007FFE00000064
:10525000000000FFFF000000000000FFFF00000052
:10526000000001FFFF000000000001FFFF800000C0
:10527000000003FFFF800000000003FFFFC00000EC
:10528000000007FFFFC00000000007FFFFE0000074
:10529000000007FFFFE0000000000FFFFFF000002C
:1052A00000000FFFFFF0000000000FFFFFE0000014
:1052B000000007FFFFE00000000007FFFFE0000024
:1052C000000003FFFFC00000000003FFFFC000005C
:1052D000000001FFFF800000000001FFFF800000D0
:1052E000000000FFFF000000000000FFFF000000C2
:1052F0000000007FFE0000000000007FFE000000B4
:105300000000003FFC0000000000003FFC00000027
:105310000000001FF80000000000001FF80000005F
:105320000000000FF00000000000000FF00000007F
:1053300000000007E000000000000007E00000009F
:1053400000000003C000000000000003C0000000D7
:10535000000000018000000000000001800000004B
:1053600000000000000000000194000800000000A0
:10537000000000000000000000000000000000002D
:10538000000000000000000000000000000000001D
:10539000000000000000000000000000000000000D
:1053A00000000000000000000000000000000000FD
:1053B00000000000000000000000000000000000ED
:1053C00000000000000000000000000000000000DD
:1053D00000000000000000000000000000000000CD
:1053E00000000000000000000000000000000000BD
:1053F00000000000000000000000000000000001AC
:105400008000000000000007E00000000000001F16
:10541000F80000000000003FFE000000000000FF58
:10542000FF000000000000FFFF800000000001FFFF
:10543000FF800000000003FFFFC00000000003FF2A
:10544000FFC00000000003FFFFC00000000001FEDD
:105450007F800000000000FC3F0000000000000012
:10546000000000000000000000000000000000003C
:10547000000000000000000000000000000000002C
:10548000000000000000000000000000000000001C
:10549000000000000000000000000000000000000C
:1054A00000000000000000000000000000000000FC
:1054B00000000000000000000000000000000000EC
:1054C00000000000000000000000000000000000DC
:1054D00000000000000000000000000000000000CC
:1054E00000000000000000000000000000000000BC
:1054F000000000000000000000000000019400080F
:10550000000000000000000000000000000000009B
:10551000000000000000000000000000000000008B
:10552000000000000000000000000000000000007B
:10553000000001FFFF800000000001FFFF8000006D
:10554000000001FFFF800000000001FFFF8000005D
:10555000000001FFFF800000000001FFFF8000004D
:10556000000001FFFF800000000001FFFF8000003D
:10557000000001FFFF800000000001FFFF8000002D
:10558000000001FFFF800000000001FFFF8000001D
:10559000000001FFFF800000000001FFFF8000000D
:1055A000000001FFFF800000000001FFFF800000FD
:1055B000000001FFFF800000000001FFFF800000ED
:1055C000000001FFFF800000000001FFFF800000DD
:1055D000000001FFFF800000000001FFFF800000CD
:1055E000000001FFFF800000000001FFFF800000BD
:1055F000000001FFFF800000000001FFFF800000AD
:10560000000001FFFF800000000001FFFF8000009C
:10561000000001FFFF800000000001FFFF8000008C
:10562000000001FFFF800000000001FFFF8000007C
:10563000000001FFFF800000000001FFFF8000006C
:10564000000001FFFF800000000001FFFF8000005C
:10565000000001FFFF800000000001FFFF8000004C
:10566000000000000000000000000000000000003A
:10567000000000000000000000000000000000002A
:10568000000000000000000000000000000000001A
:10569000019400080000000000000000000000006D
:1056A00000000000000000000000000000000000FA
:1056B00000000000000000000000000000000000EA
:1056C00000000000000000000000000000000000DA
:1056D00000000000000000000000000000000000CA
:1056E00000000000000000000000000000000000BA
:1056F00000000000000000000000000000000000AA
:1057000000000000000000FFF8000000000003FFA0
:10571000FE000000000003FFFF000000000003FF88
:10572000FF800000000003E07F8000000000030015
:105730001F800000000000001FC0000000000000EB
:105740001F800000000000001F800000000000001B
:10575000FF8000000000000FFF0000000000000FAD
:10576000F80000000000000FFC0000000000000135
:10577000FE000000000000003F00000000000000EC
:105780001F800000000001001F800000000001E0F9
:105790003F800000000001FFFF800000000001FFCB
:1057A000FF000000000001FFFE0000000000007F7D
:1057B000F8000000000000000000000000000000F1
:1057C00000000000000000000000000000000000D9
:1057D00000000000000000000000000000000000C9
:1057E00000000000000000000000000000000000B9
:1057F00000000000000000000000000000000000A9
:105800000000000000000000000000000000000098
:105810000000000000000000000000000000000088
:1058200000000000019400080000000000000000DB
:105830000000000000000000000000000000000068
:105840000000000000000000000000000000000058
:105850000000000000000000000000000000000048
:105860000000000000000000000000000000000038
:105870000000000000000000000000000000000028
:105880000000000000000000000000000000000018
:105890000000000000000000000003FFFF80000087
:1058A000000003FFFF800000000003FFFF800000F6
:1058B000000001FFFF800000000000FE000000006B
:1058C0000000007F800000000000001FC0000000FA
:1058D0000000000FE000000000000007F8000000DA
:1058E00000000001FC00000000000000FC000000BF
:1058F000000000007E000000000000007F000000AB
:10590000000000003F000000000000003F00000019
:10591000000000003F000000000001807F00000048
:10592000000001E0FF000000000001FFFF00000098
:10593000000001FFFE000000000001FFFC0000006D
:105940000000003FF0000000000000000000000028
:105950000000000000000000000000000000000047
:105960000000000000000000000000000000000037
:105970000000000000000000000000000000000027
:105980000000000000000000000000000000000017
:105990000000000000000000000000000000000007
:1059A00000000000000000000000000000000000F7
:1059B000000000000000000001940008000000004A
:1059C00000000000000000000000000000000000D7
:1059D00000000000000000000000000000000000C7
:1059E00000000000000000000000000000000000B7
:1059F00000000000000000000000000000000000A7
:105A00000000000000000000000000000000000096
:105A10000000000000000000000000000000000086
:105A2000000000000000000000000000000000FF77
:105A3000FF000000000000FFFF000000000000FF6A
:105A4000FF000000000000FFFF0000000000000752
:105A5000E000000000000007E00000000000000778
:105A6000E000000000000007E00000000000000768
:105A7000E000000000000007E00000000000000758
:105A8000E000000000000007E00000000000000748
:105A9000E000000000000007E00000000000000738
:105AA000E0000000000000FFE0000000000000FF38
:105AB000E0000000000000FFE0000000000000FF28
:105AC000E00000000000000FE00000000000000700
:105AD000E000000000000003E00000000000000003
