:020000040800F2
:100000002032002001010008250100082701000816
:100010002B0100082F010008330100080000000038
:100020000000000000000000000000003701000890
:1000300039010008000000003B010008712400089D
:100040001B0100081B0100081B010008112B000800
:100050001B0100081B0100081B0100081B01000810
:100060001B0100081B0100081B0100081B01000800
:100070001B0100081B0100087925000899250008CC
:100080001B0100081B0100081B0100081B010008E0
:10009000B52C00081B0100081B0100081B0100080B
:1000A0001B0100081B0100081B0100081B010008C0
:1000B0001B0100081B0100081B0100081B010008B0
:1000C0001B0100081B0100081B0100081B010008A0
:1000D0001B0100081B0100081B0100081B01000890
:1000E0001B0100081B0100081B010008DFF80CD0F1
:1000F00004F038FA004800473D0100082032002093
:100100000648804706480047FEE7FEE7FEE7FEE7B1
:10011000FEE7FEE7FEE7FEE7FEE7FEE70103000875
:10012000ED000008704700BFFEE700BFFEE700BF1C
:10013000FEE700BFFEE770477047704708B5002430
:10014000002500200090002602F02EF903F032FA7C
:1001500003F006FE0120364908700020354908707A
:1001600003F03AFA03F08CFB61E0012664B903F076
:1001700077FE20B10124012003F071FE04E0002687
:100180000024002003F06BFE6EB103F010FF50B1AD
:1001900003F0F5FE38B1012503202549087002203F
:1001A00003F05DFE06E000250520214908700320CC
:1001B00003F055FE0020009035E01D48007803282C
:1001C00004D0052805D104F089F903E004F0A8F96A
:1001D00000E000BF00BF00201649087003F0CEFD0C
:1001E00018B10021134804F079F812480078022869
:1001F00002D0042815D10AE02CB1042003F02FFE10
:10020000684604F028F9052003F029FE0AE025B12C
:10021000062003F024FE04F042F9072003F01FFE3D
:1002200000E000BF00BF9DF800000028C5D09CE79B
:10023000000000200100002000210020674A126811
:1002400042F48032654B1A6000BF644A126802F4BF
:100250000030491C10B9B1F5A06FF6D15F4A1268A1
:1002600012F4003F01D0012000E00020012842D11B
:100270005B4A126842F01002594B1A601A46126823
:1002800022F003021A601A46126842F002021A6053
:10029000524A5268514B5A601A4652685A601A467E
:1002A000526842F480625A601A46526822F47C1204
:1002B0005A601A46526842F410225A601A4612686E
:1002C00042F080721A6000BF444A126812F0007F48
:1002D000FAD0424A526822F00302404B5A601A4652
:1002E000526842F002025A6000BF3C4A526802F073
:1002F0000C02082AF9D1704710B5FFF79DFF10BD19
:1003000010B53648006840F00100344908600846DE
:10031000406834490840314948600846006832491D
:1003200008402E4908600846006820F480200860D4
:100330000846406820F4FE0048604FF41F008860C3
:10034000FFF7DAFF4FF000602849086010BD10B5D4
:10035000002100200022214B5B6803F00C0121B139
:10036000042906D0082928D107E0214B214C23601D
:1003700027E0214B1F4C236023E0184B5B6803F4FC
:100380007010164B5B6803F48032022303EB90403D
:1003900022B91A4B4343174C23600DE00F4B5B68A7
:1003A00013F4003F04D0124B4343124C236003E08C
:1003B000114B43430F4C236003E00D4B0D4C236066
:1003C00000BF00BF054B5B68C3F303130C4CE15C3B
:1003D000084B1B68CB40074C236010BD0010024047
:1003E000002002400000FFF8FFFFF6FE08ED00E0ED
:1003F00000127A00040000200024F40000093D00EF
:100400000800002031490143314A1160704770B53E
:10041000002100230F22C4780CB32D4C246804F46F
:10042000E064C4F5E064210AC1F10403CA404478E1
:1004300004FA03F18478144021430901254C06781D
:10044000A155047804F01F050124AC4005786D1116
:100450004FF0E02606EB8505C5F8004109E0047879
:1004600004F01F050124AC401B4D0678761145F8B9
:10047000264070BD194A0A400243154B1B1F1A60E3
:10048000704739B1124A121D12680243104B1B1DEE
:100490001A6006E00E4A121D126882430C4B1B1DA7
:1004A0001A607047042808D14FF0E021096941F033
:1004B00004014FF0E022116107E04FF0E0210969EB
:1004C00021F004014FF0E022116170470000FA05AD
:1004D0000CED00E000E400E080E100E080FFFF1FA1
:1004E00010B50446CA48844208D10121042000F016
:1004F00023FB0021042000F01FFB46E0C548844296
:1005000008D10121082000F017FB0021082000F08D
:1005100013FB3AE0C048844208D10121102000F0CA
:100520000BFB0021102000F007FB2EE0BB488442AB
:1005300008D10121202000F0FFFA0021202000F046
:10054000FBFA22E0B648844208D10121402000F0A5
:10055000F3FA0021402000F0EFFA16E0B14884429F
:1005600008D10121802000F0E7FA0021802000F06E
:10057000E3FA0AE0AC48844207D10121801500F07B
:10058000DBFA0021A01500F0D7FA10BD10B501214B
:10059000084600F0D1FA0021012000F0CDFA10BD8C
:1005A0002DE9F0410246002500260020002300240A
:1005B000002791F803C00CF00F0591F803C01CF060
:1005C000100F03D091F802C04CEA050591F800C065
:1005D000BCF1000F31D0146800202BE04FF0010C6B
:1005E0000CFA00F3B1F800C00CEA03069E4220D1D9
:1005F00083004FF00F0C0CFA03F7BC4305FA03FC21
:100600004CEA040491F803C0BCF1280F06D14FF066
:10061000010C0CFA00FCC2F814C00AE091F803C007
:10062000BCF1480F05D14FF0010C0CFA00FCC2F8E8
:1006300010C0401C0828D1D31460B1F800C0BCF130
:10064000FF0F34DD546800202EE000F1080C4FF05D
:10065000010808FA0CF3B1F800C00CEA03069E4248
:1006600021D183004FF00F0C0CFA03F7BC4305FABD
:1006700003FC4CEA040491F803C0BCF1280F05D137
:1006800000F1080C08FA0CF8C2F8148091F803C0C5
:10069000BCF1480F07D100F1080C4FF0010808FA2F
:1006A0000CF8C2F81080401C0828CED35460BDE876
:1006B000F0814FF6FF710180022181700421C17029
:1006C00070470246002093680B4201D0012000E0F1
:1006D000002070470146886880B2704702460020BB
:1006E000D3680B4201D0012000E000207047014692
:1006F000C86880B2704701617047416170470AB1B4
:10070000016100E041617047C16070474FF4803281
:100710000A4382618161826182698269704702460F
:100720000020424B18684FF68073184040EA0210D0
:1007300008433E4B186070473D49C8617047F0B5AB
:100740000A46002300240021002500F00046B6F1EF
:10075000004F02D1354EF16901E0344E7168C0F3AB
:10076000034583B200F44016B6F5401F08D121F0CE
:1007700070612E4E766826F070662C4F7E6012E017
:1007800000F48016B6F5801F06D1032606FA05F49C
:10079000A14341F0706106E0460D360103FA06F60A
:1007A000B14341F0706122B1460D360103FA06F6FD
:1007B000314300F00046B6F1004F02D11B4EF1610B
:1007C00001E01A4E7160F0BD30B500228B071C0F9E
:1007D0000F2303FA04F2154B08338C1053F824301E
:1007E0009343124C08348D1044F8253023468C1066
:1007F00053F824308C07240F00FA04F423430B4CE5
:1008000008348D1044F8253030BD0A49086070471F
:1008100000080140000C014000100140001401409C
:1008200000180140001C0140002001400000014070
:1008300000002042DC002042DB48006840F001005C
:10084000D949086008464068D8490840D6494860F8
:1008500008460068D6490840D34908600846006841
:1008600020F4802008600846406820F4FE004860BC
:100870004FF41F0088607047CB49096821F480312C
:10088000C94A11601146096821F480211160B0F550
:10089000803F03D0B0F5802F0ED106E0C249096831
:1008A00041F48031C04A116007E0BF49096841F452
:1008B000A021BD4A116000E000BF00BF704710B525
:1008C00001460022002300204A11012A02D1B64C21
:1008D000236806E0022A02D1B34C236A01E0B24C3D
:1008E000636A01F01F02012494401C4201D00120E0
:1008F00000E0002010BD70B500240025002600BFD8
:100900003120FFF7DCFF0646641CB4F5A06F01D070
:10091000002EF5D03120FFF7D2FF08B1012500E00D
:100920000025284670BD014600209F4A106820F02F
:10093000F80040EAC100106070479E4908607047A7
:1009400002460020984B586820F47C1042EA0103CC
:100950001843954B586070479649086670470146A2
:100960000020914A506820F003000843506070470F
:100970008D48406800F00C007047014600208A4A0C
:10098000506820F0F0000843506070470146002096
:10099000854A506820F4E060084350607047014683
:1009A0000020814A506820F4605040EAC100506045
:1009B000704729B17C4A527A02437B4B5A7204E059
:1009C000794A527A8243784B5A7270477A49086062
:1009D000704701460020744A506820F440400843A4
:1009E000506070470021754A11706F4A82F82010DC
:1009F000012802D0042808D103E001216F4A1170B8
:100A000004E005216D4A117000E000BF00BF70478F
:100A10006B49086070476449096A0143624A116280
:100A20007047674944390860704730B5002100229B
:100A3000002400235C4D6D6805F00C0121B10429F0
:100A400005D0082923D105E05E4D056022E05E4D0A
:100A500005601FE0544D6D6805F47012524D6D68CD
:100A600005F48034022505EB92421CB9574D5543DD
:100A700005600BE04C4D6D6815F4003F03D0514DFF
:100A80005543056002E0504D5543056002E04D4D71
:100A9000056000BF00BF444D6D6805F0F001090915
:100AA0004B4D6B5C0568DD4045603F4D6D6805F45E
:100AB000E061090A464D6B5C4568DD4085603A4D52
:100AC0006D6805F46051C90A414D6B5C4568DD40B5
:100AD000C560354D6D6805F44041890B3D4D6B5C3B
:100AE000C568B5FBF3F5056130BD29B12E4A5269E1
:100AF00002432D4B5A6104E02B4A526982432A4B30
:100B00005A61704729B1284A92690243264B9A617B
:100B100004E0254A92698243234B9A61704729B1C8
:100B2000214AD2690243204BDA6104E01E4AD269AD
:100B300082431D4BDA61704729B11B4AD2680243D8
:100B4000194BDA6004E0184AD2688243164BDA6027
:100B5000704729B1144A12690243134B1A6104E029
:100B6000114A12698243104B1A6170471449403987
:100B7000086070470F49C86470470B49C8717047D7
:100B80000948406A40F08070074948627047014652
:100B90000020054A92680A4201D0012000E00020AE
:100BA0007047014988727047001002400000FFF84A
:100BB000FFFFF6FE00004242D800424220100240F1
:100BC0008004424200127A000024F40000093D0033
:100BD000180000202800002010B50446FB4884427D
:100BE00009D101218803FFF7A7FF00214FF48040BE
:100BF000FFF7A2FF32E0F648844209D10121480400
:100C0000FFF7A7FF00214FF40030FFF7A2FF25E018
:100C1000F048844209D101218804FFF79AFF00219E
:100C20004FF48020FFF795FF18E0EB48844209D18C
:100C30000121C804FFF78DFF00214FF40020FFF7CA
:100C400088FF0BE0E548844208D101210805FFF741
:100C500080FF00214FF48010FFF77BFF10BD2DE9CE
:100C6000F04786B005460E460024A24600BFA146C6
:100C70000027B08900B100BF2F462C8A4CF6FF70C8
:100C80000440F08804432C82AC894EF6F3100440F3
:100C9000B08831890843718908430443AC81AC8A28
:100CA0004FF6FF400440B0890443AC8201A8FFF72F
:100CB000BCFEC648874202D1DDF810A001E0DDF895
:100CC0000CA0A88910F4004F08D00AEBCA0000EB72
:100CD0000A1031684900B0FBF1F807E00AEBCA00DE
:100CE00000EB0A1031688900B0FBF1F86420B8FB12
:100CF000F0F004012009642101FB1089A88910F497
:100D0000004F08D0322000EBC900B0FBF1F000F03A
:100D10000700044308E0322000EB09106421B0FB17
:100D2000F1F000F00F0004432C8106B0BDE8F0871D
:100D30004FF41651016000218180C18001810C2196
:100D4000418100218181704710B502460020108A40
:100D50004FF2FF0318400B884C8823438C882343B1
:100D6000CC8823431843108210BD002101804180AC
:100D70008180C180704721B1828942F40052828112
:100D800004E082894DF6FF731A4082817047F0B506
:100D900003460024002600250020A1F510676A3FC5
:100DA00000D100BF1846C1F3421401F01F0601270D
:100DB00007FA06F5012C01D10C3004E0022C01D118
:100DC000103000E014301AB107682F43076002E0CA
:100DD0000768AF430760F0BD1AB1838A0B43838273
:100DE00002E0838A8B4383827047028A4FF6F07356
:100DF0001A400282028A0A430282704782894FF2B5
:100E0000FF731A40828182890A438281704721B12F
:100E1000828942F00202828104E082894FF6FD73EA
:100E20001A4082817047028A4FF6DF731A400282AD
:100E3000028A0A430282704721B1028A42F4804248
:100E4000028204E0028A4BF6FF731A400282704766
:100E5000C1F308028280704701468888C0F3080009
:100E60007047818941F0010181817047028BD2B2C4
:100E70000283028B42EA012202837047028B02F452
:100E80007F420283028B0A430283704721B1828A28
:100E900042F02002828204E0828A4FF6DF731A4019
:100EA0008282704721B1828A42F01002828204E07D
:100EB000828A4FF6EF731A408282704721B1828A8C
:100EC00042F00802828204E0828A4FF6F7731A40E9
:100ED0008282704721B1828942F40042828103E01C
:100EE0008289C2F30E028281704721B1828A42F464
:100EF0000062828204E0828A4FF2FF731A4082828B
:100F00007047828A4FF6FB731A408282828A0A43B4
:100F10008282704721B1828A42F00202828204E01A
:100F2000828A4FF6FD731A40828270470246002083
:100F3000B1F5007F00D100BF13880B4201D0012022
:100F400000E00020704701F40072B2F5007F00D18C
:100F500000BFCA430280704770B5024600240023D8
:100F600000250020A1F510666A3E00D100BFC1F344
:100F7000421501F01F03012606FA03F3012D02D1E9
:100F80009689334006E0022D02D1168A334001E0F3
:100F9000968A33400C12012606FA04F4168834406F
:100FA00013B10CB1012000E0002070BD10B500228B
:100FB0000023A1F510646A3C00D100BF0A1201248D
:100FC0009440A3B2DC43048010BD0000003801400F
:100FD0000044004000480040004C004000500040E9
:100FE00010B50446BE48844208D101218014FFF7A1
:100FF000A3FD0021A014FFF79FFD16E0B94884422D
:1010000008D101210014FFF7A4FD00212014FFF7EF
:10101000A0FD0AE0B448844207D10121C013FFF7C4
:1010200098FD0021E013FFF794FD10BD10B50022DC
:10103000028802F441520B884C8823438C88234356
:10104000CC8823430C8923434C8923438C89234335
:10105000CC8923431A430280838B4FF2FF742340D1
:1010600083830B8A038210BD2DE9F04F85B00546BE
:101070000C464FF0000902274FF000084FF0010B1B
:101080000026B246A88B4FF240010840A8830220F8
:101090002884B5F81C90A068022801D100BF38E070
:1010A000A08810B94FF0010B01E04FF0020B8D4802
:1010B000854200D100E000BF6846FFF7B6FCDDF8CE
:1010C00000A0E088B0F5007F0AD14FEA1A2000EBBB
:1010D00080004000A168B0FBF1F0401D86B20BE03B
:1010E0004FEA4B10BAFBF0F000EB80004000A16823
:1010F000B0FBF1F0401D86B20A20B6FBF0F606F018
:101100000108A6EB0800C0F34F074FF6FF7000EA96
:101110000828022F01DBFF2F02DD02274FF0000815
:10112000E08840EA080038432884A088A189084361
:10113000618808432188084340F4006040EA0909B7
:10114000A5F81C9005B0BDE8F08F0021018041801A
:101150008180C180018141818181C181072101821A
:1011600070470021018041808180C180022181601F
:1011700000218181704721B1028842F04002028043
:1011800004E002884FF6BF731A400280704721B115
:10119000828B42F48062828304E0828B4FF6FF33BD
:1011A0001A408283704730B5002400230C110125BA
:1011B000A540ABB21AB185881D43858002E08588C1
:1011C0009D43858030BD1AB183880B43838002E044
:1011D00083888B438380704781817047014688896B
:1011E0007047A1F57E42FF3A04D0028842F4807233
:1011F000028004E002884FF6FF631A4002807047C5
:1012000021B1828842F00402828004E082884FF695
:10121000FB731A408280704702884FF2FF731A40B6
:10122000028002880A4302807047018841F480519D
:101230000180704721B1028842F40052028004E02C
:1012400002884DF6FF731A40028070470246002064
:10125000012901D0108B00E0908A70470146088A6E
:101260007047B1F5804F04D1028842F48042028079
:1012700004E002884BF6FF731A4002807047024672
:10128000002013890B4201D0012000E000207047AC
:10129000CA4302817047F0B50246002000240023B3
:1012A000002501F00F070126BE40B4B20B11012644
:1012B0009E40B3B2968806EA03051689264202D0FC
:1012C0000DB1012000E00020F0BD10B5002201F0BA
:1012D0000F040123A3409AB2D343038110BD000041
:1012E0000030014000380040003C004001684FF6EB
:1012F000FE72114001600021016041608160C160A7
:101300008C49884208D18B490839496841F00F015E
:10131000884A083A51608AE086491431884208D1E7
:1013200084490839496841F0F001824A083A51601D
:101330007DE080492831884208D17E4908394968D2
:1013400041F470617B4A083A516070E079493C3160
:10135000884208D177490839496841F47041754A93
:10136000083A516063E073495031884208D17149AD
:101370000839496841F470216E4A083A516056E0D4
:101380006C496431884208D16A490839496841F496
:101390007001684A083A516049E0664978318842EC
:1013A00008D164490839496841F07061614A083AD6
:1013B00051603CE06049884206D1011F096841F054
:1013C0000F01021F116032E05B491431884208D1DD
:1013D0005949091F096841F0F001574A121F11606D
:1013E00025E055492831884208D15349091F096829
:1013F00041F47061504A121F116018E04E493C31AF
:10140000884208D14C49091F096841F470414A4A91
:10141000121F11600BE048495031884207D14649FC
:10142000091F096841F47021434A121F1160704777
:1014300010B50022026847F6F0739A430C6A8B6875
:1014400023430C6923434C6923438C692343CC69B0
:1014500023434C6A23438C6A23431A430260CB68BC
:1014600043600B6883604B68C36010BD002101605E
:1014700041608160C160016141618161C16101625E
:1014800041628162704721B1026842F0010202604C
:1014900004E002684FF6FE731A40026070471AB10A
:1014A00003680B43036002E003688B4303607047EB
:1014B000416070470146486880B27047014600208D
:1014C000002211F0805F03D01B4B083B1A6802E03A
:1014D000184B083B1A680A4201D0012000E00020A6
:1014E000704710F0805F03D01349091F086002E0C5
:1014F000104908394860704701460020002211F069
:10150000805F03D00C4B083B1A6802E0094B083B94
:101510001A680A4201D0012000E00020704710F054
:10152000805F03D00449091F086002E001490839BF
:1015300048607047080002400804024010B50121CD
:101540000807FFF706FB00214FF08050FFF701FB73
:1015500010BD294908627047274908617047014654
:101560000020264A106820F0E00008431060704711
:1015700023490860704710B5024600201F4B1868C9
:1015800020F00300104318601E4B1B6843F0040357
:101590001C4C2360012901D130BF00E020BF194B52
:1015A0001B6823F00403174C236010BD1348006828
:1015B00040F00400114908600846006840F002004D
:1015C00008601048006840F004000E49086000BF41
:1015D00000BF30BF704701460020084A52680A42E7
:1015E00001D0012000E0002070470449096841EA69
:1015F0008001024A1160704700000E4200700040F6
:10160000A0000E4210ED00E029B14F4A12880243BB
:101610004D4B1A8004E04C4A128882434A4B1A8090
:1016200070474948001D008840F010004649091DD8
:10163000088070474448001D00884FF6EF7108404D
:101640004149091D0880704700213F481C3001882E
:10165000001F008841EA0040704700B50246FFF7CE
:10166000E0FF100C384918310880091D0A80FFF787
:10167000E1FF00BD00B50246FFF7D3FFC2F3034010
:10168000314908310880091D0A80FFF7D3FF00BDEA
:1016900000B50246FFF7C5FF100C2B49203108802A
:1016A000091D0A80FFF7C6FF00BD00202649103142
:1016B00009880907080B2449143109880843704731
:1016C00000BF2148001D008810F0200FF9D070479E
:1016D0001D48001D00884FF6F77108401A49091D82
:1016E000088000BF1848001D008810F0080FF9D0CE
:1016F000704701460020144A121D12880A4201D088
:10170000012000E0002070470F49091D098881432E
:101710000D4A121D11807047014600200A4A121D11
:1017200012880A40D0B2084A12880A4202D008B190
:10173000012000E0002070470349091D098881430A
:10174000014A121D118070470028004010B5012089
:10175000FFF70CFA0020FFF709FA10BD24490860D2
:1017600070472349091F0860704721498431086088
:101770007047014600201F4A10884FF67F421040F4
:1017800008431C4A1080704701460020194A1088FF
:101790004FF6807210400843164A108070470022AE
:1017A000144A2C3A02441160704701460022114A43
:1017B0002C3A0A44108870470D489C300068C0B22B
:1017C00070470C480830008840F001000949083192
:1017D000088070470648A0300068C0B270470548CE
:1017E0000830008840F00200024908310880704744
:1017F00004860D422C6C004010B50446FE4884421D
:1018000009D101214806FFF7A4F900214FF000702B
:10181000FFF79FF908E001218806FFF79AF90021F8
:101820004FF08060FFF795F910BD30B502460020FB
:101830000023146824F002041460146844F00104C6
:10184000146000E05B1C546814F0010F03D1A3F591
:101850007F44FF3CF6D1546814F0010F01D1002001
:101860006CE08C79012C04D1146844F0800414607D
:1018700003E0146824F080041460CC79012C04D1B6
:10188000146844F04004146003E0146824F0400439
:1018900014600C7A012C04D1146844F02004146004
:1018A00003E0146824F0200414604C7A012C04D165
:1018B000146844F01004146003E0146824F0100469
:1018C00014608C7A012C04D1146844F0080414606C
:1018D00003E0146824F008041460CC7A012C04D1CD
:1018E000146844F00404146003E0146824F0040451
:1018F00014608C78A407CD7844EA05640D7944EA35
:1019000005444D7944EA05540D886D1E2C43D4617D
:10191000146824F001041460002300E05B1C546888
:1019200014F0010F03D0A3F57F44FF3CF6D15468B7
:1019300014F0010F01D0002000E0012030BD10B5EF
:101940000021837A012202FA03F1AC4A126842F0C4
:101950000102AA4B1A60A94A1C3212688A43A74B9B
:101960001C331A60027BCAB9A44A0C3212688A433B
:10197000A24B0C331A604288C38842EA03439F4A51
:101980004032847A42F834300288838842EA034342
:101990009A4A4032847A02EBC4025360027B012AE5
:1019A00019D1964A0C3212680A43944B0C331A60D0
:1019B0004288038842EA0343904A4032847A42F8DC
:1019C0003430C288838842EA03438C4A4032847AA6
:1019D00002EBC4025360C27A3AB9884A121D1268F7
:1019E0008A43864B1B1D1A6006E0844A121D12684A
:1019F0000A43824B1B1D1A60028932B97F4A143296
:101A000012688A437D4B14331A600289012A06D179
:101A10007A4A143212680A43784B14331A60427BB4
:101A2000012A06D1754A1C3212680A43734B1C33D3
:101A30001A60724A126822F00102704B1A6010BDDF
:101A400000218171C171017241728172C172817014
:101A5000C170032101710221417101210180704790
:101A60006649096841F00101644A1160114609683C
:101A700043F60E729143614A11601146096841EACA
:101A8000002111601146096821F0010111607047C1
:101A900021B1026842F48032026003E0026822F45D
:101AA000803202607047E1B1026842F08002026059
:101AB0004FF4C272125842F480734FF4C272135042
:101AC0004FF4CA72125842F480734FF4CA72135022
:101AD0004FF4D272125842F480734FF4D272135002
:101AE0001BE0026822F0800202604FF4C2721258BA
:101AF00022F480734FF4C27213504FF4CA7212581A
:101B000022F480734FF4CA7213504FF4D2721258F9
:101B100022F480734FF4D2721350704710B502460E
:101B20000020936803F08063B3F1806F00D110E070
:101B3000936803F00063B3F1006F01D1012008E066
:101B4000936803F08053B3F1805F01D1022000E07D
:101B50000420042879D002F5C07303EB00131B683E
:101B600003F0010402F5C07303EB00131C600B7A51
:101B70007BB94B7A0C8843EA445302F5C07404EBFA
:101B800000142468234302F5C07404EB001423609E
:101B900010E00B7A4C6843EAC4034C7A234302F505
:101BA000C07404EB00142468234302F5C07404EBF2
:101BB000001423608B7A03F00F038B7202F5C0735D
:101BC00003EB00135B6823F00F0402F5C07303EB13
:101BD00000135C6002F5C07303EB00135B688C7A42
:101BE000234302F5C07404EB001463608B7B1C0676
:101BF0004B7B44EA034403E000640040006600407D
:101C00000B7B44EA0323CC7A234302F5C07404EB34
:101C10000014A3608B7C1C064B7C44EA03440B7CC1
:101C200044EA0323CC7B234302F5C07404EB001485
:101C3000E36002F5C07303EB00131B6843F001047B
:101C400002F5C07303EB00131C6010BD10B5024613
:101C5000002321B1012907D002290FD109E09068A2
:101C6000F84C00EA04030BE09068F74C00EA040328
:101C700006E09068F54C00EA040301E0002300BF91
:101C800000BFF34C181BA34216D007DC83B16FF0E2
:101C9000806018180ED0022818D111E0B0F5007F2E
:101CA00010D0EC4C001909D0B0F5003F0ED10BE07C
:101CB00002230DE000230BE0002309E0002307E0EE
:101CC000012305E0012303E0012301E0002300BF1D
:101CD00000BFD8B210BD21B1012907D002290FD110
:101CE00009E0826842F0800282600AE0826842F481
:101CF0000042826005E0826842F40002826000E0F7
:101D000000BF00BF704710B500F5D87303EB011397
:101D10001B6803F004031372137A53B900F5D873E8
:101D200003EB01131B6840F2FF7404EA5353136082
:101D300009E000F5D87303EB01131B686FF06044F2
:101D400004EAD303536000F5D87303EB01131B6857
:101D500003F00203537200F5D87303EB01135B68C1
:101D600003F00F03937200F5D87303EB01135B6864
:101D70001B0AD37400F5D87303EB01139B68D3726D
:101D800000F5D87303EB01139B681C0A147300F56C
:101D9000D87303EB01139B681C0C547300F5D873C4
:101DA00003EB01139B681B0E937300F5D87303EBD1
:101DB0000113DB68D37300F5D87303EB0113DB6801
:101DC0001C0A147400F5D87303EB0113DB681C0CB8
:101DD000547400F5D87303EB0113DB681B0E937486
:101DE00021B9C36843F02003C36003E0036943F0F3
:101DF0002003036110BD21B9C26842F02002C26015
:101E000003E0026942F020020261704702460020AE
:101E100019B9D36803F0030006E0012903D113695F
:101E200003F0030000E00020704710B502460B46A7
:101E300000204FF6FF71BBB9146824F0020444F08F
:101E40000104146000E0491E546804F00304012CEE
:101E500001D00029F7D1546804F00304012C01D00B
:101E6000002032E0012030E0012B13D1146824F06F
:101E70000304146000E0491E546814F0030F01D0FD
:101E80000029F8D1546814F0030F01D000201CE0A1
:101E900001201AE0022B17D1146824F0010444F049
:101EA0000204146000E0491E546804F00304022C8C
:101EB00001D00029F7D1546804F00304022C01D0AA
:101EC000002002E0012000E0002010BD01460020BB
:101ED0000A6822F0010242F002020A604A6802F037
:101EE0000302022A00D10120704701464FF6FF721B
:101EF00000200B6823F002030B6000E0521E4B68C9
:101F000003F00203022B01D1002AF7D14B6803F042
:101F10000203022B00D001207047014600208A698D
:101F200002F070007047014600208A69100E704769
:101F3000014600208A69C2F3074070471AB143691D
:101F40000B43436102E043698B434361704710B523
:101F50000246002011F4700F08D09369C1F31304F6
:101F6000234201D001202DE000202BE011F0807FE2
:101F700008D05368C1F31304234201D0012021E0AB
:101F800000201FE011F0006F08D09368C1F3130424
:101F9000234201D0012015E0002013E011F0007F62
:101FA00008D0D368C1F31304234201D0012009E013
:101FB000002007E01369C1F31304234201D001207C
:101FC00000E0002010BD0022234B994202D10023E3
:101FD000836111E0C1F3130211F0007F01D0C260F0
:101FE0000AE011F0806F01D0026105E011F0006F8E
:101FF00001D0826000E042607047024600200A4241
:1020000001D0012000E00020704770B504460D4665
:1020100000266069284272D0B5F5807F69D01DDC4A
:10202000082D42D006DC012D2DD0022D31D0042DFB
:102030007FD134E0102D3ED0202D42D0402D78D1DC
:1020400045E0000003000004000300080000031046
:10205000000100080001FFF77000F030B5F5004FF7
:1020600061D009DCB5F5007F4AD0B5F5806F4DD061
:10207000B5F5006F5DD150E0B5F5803F2DD0B5F5D9
:10208000003F56D12FE0A0685549FFF7B6FF06463E
:1020900051E0E0680321FFF7B0FF06464BE0E0683F
:1020A0000821FFF7AAFF064645E0E0681021FFF788
:1020B000A4FF06463FE020690321FFF79EFF064686
:1020C00039E020690821FFF798FF064633E02069D0
:1020D0001021FFF792FF06462DE060680821FFF708
:1020E0008CFF064627E060681021FFF786FF064652
:1020F00021E0A0690121FFF780FF06461BE01BE0FD
:10210000A0690221FFF779FF064614E0A0690421C7
:10211000FFF773FF06460EE00BE0A0697021FFF7A2
:102120006CFF064607E060680421FFF766FF06467D
:1021300001E0002600BF00E00026304670BDB1F58A
:10214000007F3AD00FDC202928D006DC01291CD0E2
:1021500004291DD0082940D11DE0402921D0B1F526
:10216000807F3AD126E0B1F5004F31D006DCB1F5E1
:10217000806F25D0B1F5006F2FD124E0B1F5803FFD
:1021800012D0B1F5003F28D111E0154A826025E058
:102190000822C26022E01022C2601FE00822026111
:1021A0001CE01022026119E00822426016E01022B1
:1021B000426013E00422426010E0042242600DE01D
:1021C000042242600AE0002282610422426005E0AB
:1021D000002282610422426000E000BF00BF70471D
:1021E000010101000021F84A116000BFF6490968A9
:1021F0008142FBD3704708B510208DF803000320FF
:102200008DF80200A020ADF800006946EF48FEF707
:10221000C7F910208DF8030003208DF8020050202C
:10222000ADF800006946E948FEF7BAF91021E74821
:10223000FEF761FA08BD00B591B04FF48060ADF8CB
:10224000300004208DF833000CA9E048FEF7A8F90F
:102250004FF40070ADF8300018208DF833000320E3
:102260008DF832000CA9D948FEF79AF94FF4E13005
:102270000D900020ADF83800ADF83A00ADF83C0004
:10228000ADF840000C20ADF83E000DA9D048FEF797
:10229000E6FC0121CE48FEF76EFDCE48FFF726F89A
:1022A000CB48001D0190CC480290002003904FF4D1
:1022B0007A700490002005908020069000200790FE
:1022C000089009904FF400500A9000200B9001A94B
:1022D000C048FFF7ADF801224021BD48FEF77CFD64
:1022E0000021BC48FFF7CFF80121BA48FFF7CBF82F
:1022F0000F208DF8000000208DF801008DF80200FD
:1023000001208DF803006846FEF781F801220221C2
:10231000B048FFF7C4F811B000BD30B5AF48006851
:102320004FF47A72B0FBF2F1481EB0F1807F00D317
:102330001BE0481E4FF0E022506150170F2200288A
:1023400007DA13071D0EA64B00F00F04241F1D55BE
:1023500003E013071C0EA34B1C5400BF00204FF0DA
:10236000E02290610720106100BF30BD08B5022057
:10237000ADF8000004208DF8030002208DF8020063
:1023800069469248FEF70CF908BD08B50120ADF882
:10239000000010208DF8030003208DF8020069462C
:1023A0009148FEF7FDF808BD10B501210420FEF7A5
:1023B000A9FB01210820FEF7A5FB01210846FEF735
:1023C000A1FBFFF7E2FFFFF7D1FFFFF7A6FF012117
:1023D0008803FEF7A4FB01218803FEF793FB01218C
:1023E0000846FEF782FBFFF726FF01210803FEF7F0
:1023F00089FBFFF700FF4FF4FA60FFF7F3FE10BD13
:1024000010B50020FEF7B9FA4FF48060FEF7BEFA6F
:102410000020FEF7C4FA10BD01206C49083109689C
:1024200011F0020F00D00020704700B50023FFF725
:10243000F3FF30B1C820FFF7D5FEFFF7EDFF00B185
:102440000123184600BD10B501216748FEF755F974
:1024500010BD10B501216448FEF74DF910BD62486A
:102460000C30006880F001005F490C310860704753
:1024700010B55E480068401C5C4908605C48006814
:10248000401C5B490860594800680A280ED30020A8
:102490005649086057480068401C5649086056482D
:1024A0000068401C5449086000F080FC50480068F7
:1024B000B0F5FA7F04D300204D490860FFF7CFFF45
:1024C0004E480068401C4D4908603F480068401C69
:1024D0003D49086010BD70B505460C460CE000BFD4
:1024E00020213B48FEF722FD0028F9D03848FEF7AE
:1024F000B3FC28706D1C641E002CF0D170BD70B54B
:1025000004460D460CE021783148FEF7A1FC00BFDF
:1025100080212F48FEF70AFD0028F9D0641C6D1EAB
:10252000002DF0D170BD70B505460C4629485838CD
:102530004566C46501212748FEF7A5FF70BD70B54B
:1025400004460D4623485838046585640121214816
:102550001438FEF798FF00BF4FF40050FEF7AEFFAF
:102560000028F9D04FF40050FEF7BBFF00211948B6
:102570001438FEF788FF70BD10B54FF40050FEF719
:102580009DFF012807D14003FEF7ABFF0021114852
:102590001438FEF778FF10BD10B54FF40030FEF789
:1025A0008DFF01280FD14004FEF79BFF0021094851
:1025B000FEF769FF4FF47A7006495839C865012162
:1025C0000448FEF760FF10BD3C00002000080140F9
:1025D0000038014058000240B400002004000020F0
:1025E00018ED00E000E400E0000C01404000002095
:1025F000440000202C000020340000203000002087
:1026000000B587B018208DF81B0003208DF81A0044
:102610004FF42040ADF8180006A9F848FDF7C0FFB8
:1026200010208DF81B0003208DF81A004FF4805005
:10263000ADF8180006A9F148FDF7B2FF4FF480513C
:10264000EE48FEF758F804208DF81B0003208DF8A3
:102650001A004FF48040ADF8180006A9E748FDF7CE
:102660009FFFE748FEF7BCFC0020ADF80400ADF882
:102670000800ADF80A00ADF80C004FF40070ADF89A
:102680000E001020ADF810000020ADF81200072059
:10269000ADF814004FF48270ADF8060001A9D848D7
:1026A000FEF7C4FC0121D648FEF765FD07B000BD6A
:1026B00010B54FF48051D148FEF71FF810BD10B58A
:1026C0004FF48051CD48FEF716F810BD0020CC49DC
:1026D000088840F03800088070470020C849088802
:1026E00020F0380141F01000C5490880704770B5EE
:1026F00004460D4600BF02212046FEF7C0FD00281B
:10270000F9D029462046FEF767FD00BF012120468B
:10271000FEF7B5FD0028F9D02046FEF75FFDC0B2F8
:1027200070BD10B5FF21B648FFF7E1FF10BD10B531
:1027300004462146B248FFF7DAFF10BD13B59DF8F5
:102740000000B04908709DF8010048709DF8020033
:1027500088709DF80300C8709DF8040008719DF80A
:10276000050048719DF8060088719DF80110082049
:10277000FFF715F89DF802100C20FFF710F89DF8F0
:1027800003101020FFF70BF89DF804004FF461616F
:1027900048439DF80510C1EB011100EB81009DF845
:1027A000061044182046FEF758FFFEF789FF1CBDAF
:1027B0000EB50120FEF7CDFE0120FEF713F905202E
:1027C000FFF710FD4FF48070FEF725F90120FEF7AA
:1027D00028F9FEF775FFFEF77BFFFEF771FF01207A
:1027E0008DF8040018208DF8050006208DF80600ED
:1027F0000D208DF8070014208DF808003B208DF87F
:10280000090000208DF80A00DDE90101FFF796FFBD
:1028100001210420FEF7C3FF03208DF800000020F3
:102820008DF801008DF8020001208DF80300684644
:10283000FDF7EDFD01210846FEF7E6FEFEF740FF3D
:1028400047F6FF70FEF716FFFEF73AFF0EBD704722
:10285000704770B50646FEF7F7FE04466A48B4FBBB
:10286000F0F100FB11444FF46160B4FBF0F56549F1
:102870000D71B4FBF0F100FB11403C21B0FBF1F510
:1028800060494D713C20B4FBF0F100FB11455D49FE
:102890008D710846016831608188B1808079B0719E
:1028A00070BD2DE9F04F85B04FF0000B0020049073
:1028B000FEF7CAFE05460820FEF777FFC0B28DF886
:1028C00009000C20FEF771FFC0B28DF80A0010203D
:1028D000FEF76BFFC0B28DF80B004B48401E8542DF
:1028E00001D24FF0010BACE09DF80A00012817D08F
:1028F0009DF80A00032813D09DF80A0005280FD080
:102900009DF80A0007280BD09DF80A00082807D078
:102910009DF80A000A2803D09DF80A000C2824D14B
:102920009DF809001F2806DA9DF80900401CC0B276
:102930008DF809007EE09DF80A000C2809D00120DE
:102940008DF809009DF80A00401CC0B28DF80A00FD
:1029500070E001208DF80A008DF809009DF80B0049
:10296000401CC0B28DF80B0064E09DF80A000228FC
:102970004CD19DF80B004FF4C87190FBF1F201FBB4
:10298000120010B90120049015E09DF80B0064219D
:1029900090FBF1F201FB120010B9002004900AE054
:1029A0009DF80B00C11700EB91718910B0EB81010C
:1029B00001D1012004909DF809001C2806DA9DF839
:1029C0000900401CC0B28DF8090033E0049818B12A
:1029D0009DF809001D2809D101208DF809009DF8F6
:1029E0000A00401CC0B28DF80A0023E09DF80900DF
:1029F000401CC0B28DF809001CE00000000C014032
:102A00000038004048000020805101009DF8090076
:102A10001E2806DA9DF80900401CC0B28DF8090096
:102A200008E001208DF809009DF80A00401CC0B2A2
:102A30008DF80A00D548854201D32D1A01E04FF0E8
:102A4000010BBBF1000F3FF44FAF9DF80B0000F5F9
:102A5000FA649DF80A00032807DA9DF80A000C3092
:102A6000C0B28DF80A00601E84B29DF80A00401CB6
:102A700000EB400040000A2190FBF1F6E11704EB67
:102A800091718F10642094FBF0F8800094FBF0F9B2
:102A90009DF809009DF80A10022202FB0100304453
:102AA00020443844A0EB08004844401C1FFA80FA38
:102AB00007209AFBF0F100FB11AA0AF0FF008DF845
:102AC00008009DF80800B24908709DF80900487098
:102AD0009DF80A0088709DF80B00C8709DF80910D9
:102AE0000820FEF75CFE9DF80A100C20FEF757FE4A
:102AF0009DF80B101020FEF752FE2846FEF7ADFDA4
:102B0000FEF7DEFD6846FFF7A4FE05B0BDE8F08FD6
:102B100010B50320012181409E4A430942F8231049
:102B200000BF0120FEF708FEFEF78EFD9749491E03
:102B3000884208D3FFF7B5FEFEF7C2FD0020FEF77E
:102B40008CFDFEF7BDFD01209349087010BD00B556
:102B500089B04FF48070ADF8140048208DF817004C
:102B600005A98E48FDF71CFD4FF40070ADF8140068
:102B700018208DF8170003208DF8160005A9874846
:102B8000FDF70EFD01214FF4EA10FDF7D8FD844852
:102B9000FEF732FE2020ADF8180000208DF81A0054
:102BA0008DF81B0001208DF81C0002208DF81D00FF
:102BB00000208DF81E008DF81F008DF820008DF884
:102BC00021008DF822008DF8230006A97448FEF735
:102BD0002CFE00208DF80E008DF80F0001208DF8DE
:102BE00010000020ADF80400ADF80600ADF80800B4
:102BF000ADF80A00ADF80C0001208DF8110001A815
:102C0000FEF79DFE14208DF8000000208DF80100D5
:102C10008DF8020001208DF803006846FDF7F7FBF0
:102C2000012202215E48FFF789F909B000BDF0B525
:102C300085B007460D461446082C02DD002005B07D
:102C4000F0BD0097002001908DF808008DF8090074
:102C50008DF80A40002607E015F8012B3046711C5C
:102C6000CEB20DF10B010A54A642F5DB69464C4881
:102C7000FEF754FFE3E7F0B585B005460C4616466F
:102C80006A4600214648FFF73EF8009828709DF8F4
:102C90000A003070002707E03846791CCFB20DF1EA
:102CA0000B01085C04F8010B9DF80A00B842F3DC44
:102CB00005B0F0BD1FB501203A4908706A4602A967
:102CC00001A8FFF7D8FF0D2002A99DF80020885425
:102CD0000A2102AA9DF80000401C11549DF8001022
:102CE000891C02A8FFF72BFC9DF80400092801D1DC
:102CF000FFF7B5FB02212A48FFF721FA1FBD10B5E7
:102D000010212948FDF7F9FC10BD2DE9F0410746D7
:102D10000C46002521E0601E401B17F800800026AD
:102D200017E00120B04010EA080F04D080211E48AF
:102D3000FDF7E1FC03E080211B48FDF7DEFC2021CC
:102D40001948FDF7DAFC20211748FDF7D4FC701C68
:102D5000C6B2082EE5DB681CC5B2A542DBDB40210C
:102D60001148FDF7CAFC40210F48FDF7C4FC402183
:102D70000D48FDF7C2FCFFF7C2FFBDE8F08110B5BA
:102D800010210948FDF7B7FC10BD0000805101007B
:102D90004800002080E200E038000020000C0140E4
:102DA000006400403900002000080140F74908682D
:102DB00018B1411E0846F54A1160F549086818B176
:102DC000411E0846F24A1160704710B53220F049A2
:102DD0000860FFF7A6FC00BFFFF7A3FCFF2801D1A6
:102DE000012010BDEA4800680028F5D100BFF8E7CF
:102DF0002DE9F04705460C4616469A4600BFFFF7F8
:102E000057FC00BFFFF7E1FF10B98120BDE8F08754
:102E100015B94FF0950906E0082D02D14FF087094A
:102E200001E04FF0010945F04000FFF780FC200E63
:102E3000FFF77DFCC4F30740FFF779FCC4F30720DC
:102E4000FFF775FCE0B2FFF772FC4846FFF76FFC36
:102E50004FF0080807E0FFF764FC0746FF2F00D09B
:102E600004E0A8F10108B8F1000FF4D100BFB8F1F7
:102E7000000F01D18220C9E766B1BAF1000F09D075
:102E800000BFFFF74EFC06F8010BAAF101005FEA54
:102E9000000AF6D1F8B2B9E72DE9F04105460E4631
:102EA0001746984600231A4619463720FFF7A0FF19
:102EB0000446012C02DD2046BDE8F08143463A4637
:102EC00031462846FFF794FFF6E738B50020B149B0
:102ED0000870FFF795FB00BFFFF7F1FBFFF721FC40
:102EE00000BFFFF7F3FB002503E0FF20FFF71FFC07
:102EF0006D1C0A2DF9D300231A4619461846FFF710
:102F000077FF012800D089E004236A464FF4D57189
:102F10000820FFF76DFF044614F0800F00D07DE01D
:102F200064209A490860012C30D19DF802000128E4
:102F300003D19DF80300AA2800D06FE000BF002352
:102F40001A464FF080412920FFF7A6FF044604B936
:102F500006E0012C00DD61E08C4800680028EED11D
:102F600000BF8A480068E8B304236A4600213A207B
:102F7000FFF73EFFB0BB9DF8000010F0400F01D0FE
:102F8000042000E00320834908702FE000231A4644
:102F900019463720FFF72CFF10F0040F0FD0012047
:102FA0007C49087000BF79480068B8B100231A4610
:102FB00019460120FFF71CFF0028F4D10EE0022083
:102FC0007449087000BF7148006838B100231A4680
:102FD00019462920FFF760FF0028F4D16B480068EC
:102FE00000B900E002E000206A49087069480078F2
:102FF000012807D067480078022803D06548007888
:1030000003280AD100231A464FF400711020FFF75D
:10301000EFFE10B100205F49087000BF00BFFFF74E
:103020004EFBFFF77EFB00BF5A48007808B900202E
:1030300038BDFFF752FB0120FAE72DE9F0410646C3
:103040000F460A205149086000BFFFF76AFB04469B
:10305000FE2C00D103E04D4800680028F5D100BFE8
:10306000FE2C02D00020BDE8F081002503E0FFF730
:1030700058FB70556D1CBD42F9D3FFF752FBFFF7AB
:1030800050FB0120EFE72DE9FF414FF0000804233A
:10309000414A00213A20FFF7ABFE00B1CAE000230D
:1030A0001A4619460A20FFF7A3FE28B910213A480C
:1030B000001DFFF7C2FF00B9BCE000231A46194605
:1030C0000920FFF795FE28B9102133481430FFF787
:1030D000B4FF00B9AEE04FF400702F490C3908601E
:1030E000084690F820000121B1EB901F17D12A4823
:1030F0000C3890F82700010427480C3890F8280075
:1031000001EB002124480C3890F829000844C0F352
:103110001504601C800220490C3948602BE01E48D1
:103120000C3890F8260081021B480C3890F82700D4
:1031300001EB800118480C3890F8280001EBA01032
:10314000C0F30B0414480C3890F829008007410F95
:1031500011480C3890F82A0001EBD0160E480C38B4
:1031600090F8250000F00F07B919C91F601C8840AE
:1031700009490C3948600748007801282BD00228FB
:103180003ED003280AD004284FD108E05400002084
:103190005800002050000020A804002000BF012398
:1031A0006A4600210D20FFF777FE20B910216846FE
:1031B000FFF743FF00B93DE0302502E0FFF7B1FA29
:1031C0006D1E002DFAD19DF80A00011110208840D3
:1031D000684988602AE0674890F82A008007C10E95
:1031E000644890F82B0001EB5010401C614991F8A5
:1031F0002A10C1F38401491C48435E49886015E0E8
:103200005C4890F82A008006410E5A4890F82B003E
:1032100001EBD010401C574991F82D100122C2EB50
:10322000A11188405349886000E003E000BF4FF0DF
:10323000010800BF00BFFFF742FAFFF772FA00BFB4
:10324000404604B0BDE8F0812DE9F04106460F4646
:1032500090463846FFF76BFA002503E0705DFFF7F4
:1032600066FA6D1C4545F9D3FF20FFF760FAFF2091
:10327000FFF75DFAFFF755FA00F00F00052802D0BE
:103280000020BDE8F08114203B49086000BFFFF733
:1032900048FA0446FF2C00D103E0374800680028B4
:1032A000F5D100BFFF2C01D10120EAE70020E8E7BB
:1032B00070B504460D4600263048844201D2322CB7
:1032C00001D8002070BD2E480078042800D0640288
:1032D00000231A4621461820FFF78AFD30B94FF423
:1032E0000072FE212846FFF7AFFF01263046E9E7CE
:1032F0002DE9F04104460F464FF000081F48844274
:1033000001D2322C02D80020BDE8F0811C480078A0
:10331000042800D0640200231A4621461120FFF73A
:1033200067FDF8B90A201449086000BFFFF7F9F9F2
:103330000546FE2D00D103E00F4800680028F5D1B6
:1033400000BFFE2D0ED1002603E0FFF7EAF9B855C5
:10335000761CB6F5007FF8D3FFF7E3F9FFF7E1F944
:103360004FF0010800BFFFF7AAF9FFF7DAF900BF35
:103370004046C9E79C0400205400002040420F0052
:10338000500000200146087800064A7800EB024011
:103390008A7800EB0220CA7810447047F0B50346E3
:1033A0001446002B04DA2D2601F8016B5B4202E083
:1033B000202601F8016B0020012203E002EB8206C7
:1033C0007200401CA042F9D3B3FBF2F602FB1635A3
:1033D00000200DE00A26B2FBF6F2B5FBF2F60A2752
:1033E000B6FBF7FC07FB1C66303601F8016B401C8E
:1033F000A042EFD3F0BDFFB58DB017461D46169E17
:103400001C226B4906A801F09BF89DF8340006A920
:1034100051F8200000788DF814009DF8340051F820
:10342000200040788DF815009DF8340051F82000F8
:1034300080788DF816009DF835000A2190FBF1F098
:103440003030C0B28DF80C009DF8350090FBF1F2E1
:1034500001FB12003030C0B28DF80D002F208DF826
:103460000E009DF8360090FBF1F03030C0B28DF8C0
:103470000F009DF8360090FBF1F201FB1200303096
:10348000C0B28DF810002F208DF811009DF8370084
:1034900090FBF1F03030C0B28DF812009DF837008B
:1034A00090FBF1F201FB12003030C0B28DF8130036
:1034B0009DF8380090FBF1F03030C0B28DF8040078
:1034C0009DF8380090FBF1F201FB12003030C0B2E1
:1034D0008DF805003A208DF806009DF8390090FB24
:1034E000F1F03030C0B28DF807009DF8390090FB44
:1034F000F1F201FB12003030C0B28DF808003A2022
:103500008DF809009DF83A0090FBF1F03030C0B220
:103510008DF80A009DF83A0090FBF1F201FB1200D1
:103520003030C0B28DF80B0000203070012F2DD14B
:10353000002405E005A8005D05F8010B601CC4B27D
:10354000032CF7DB2C2005F8010B601C30700024E5
:1035500005E003A8005D05F8010B601CC4B2082C4F
:10356000F7DB2C2005F8010B30782044401C30702C
:10357000002405E001A8005D05F8010B601CC4B241
:10358000082CF7DB3078204430700EE0032F0CD18C
:10359000002405E001A8005D05F8010B601CC4B221
:1035A000082CF7DB30782044307011B0F0BD0000FB
:1035B000A8450008002003E000213D4A1154401CAA
:1035C0002128F9D3704710B521213948FFF79DFB19
:1035D0000A20FEF707FE10BD70B5002404E0FF20AE
:1035E00033490855601CC4B2212CF8DBFFF7EBFF10
:1035F00041F28830FEF7F6FDFFF7C1FB002404E03E
:1036000000202B490855601CC4B2212CF8DBFFF7C1
:10361000DAFF4FF4FA60FEF7E5FDFFF7B0FB002498
:1036200014E0002507E02248005D80F0FF002049FB
:103630000855681CC5B2212DF5DBFFF7C4FF6420D7
:10364000FEF7D0FDFFF79BFB601CC4B20A2CE8DB41
:1036500070BD30B50C460346C51700EB5575E91033
:10366000C51700EB5575ED10A0EBC505AAB2C2F168
:1036700007039AB20E4B5B5C01259540AB430C4DA2
:103680006B542B465B5C04FA02F52B43084D6B54DC
:1036900030BD074A115470470146002005E011F87B
:1036A000012B034B1A54421CD0B22128F7DB704780
:1036B000CC0400202DE9F0470746884614461D46F5
:1036C0004FF000090FE0002605E014F8010BFE4959
:1036D0008855701CC6B24645F7DBFFF774FF09F149
:1036E000010000F0FF09B945EDDB0DB9BDE8F08739
:1036F000FFF745FB2846FEF775FD00BFF6E72DE90D
:10370000F74F06468B46346820780002617800EB5C
:1037100001201FFA80F9A0780002E17800EB012077
:103720001FFA80F899FBF8F01FFA80FA241D9DF823
:103730000800401CC0B28DF808009DF8091001EB8C
:1037400081018800FEF74EFD23E000270DE00025F3
:1037500005E014F8010BDC494855681CC5B2454525
:10376000F7DBFFF730FF781CC7B25745EFDB9DF85A
:103770000A0040B1FFF703FB9DF80A1001EB81013D
:103780008800FEF72FFD9DF80800401EC0B28DF89E
:1037900008009DF808000028D7D1FFF7F0FA9DF83F
:1037A0000B1001EB81018800FEF71CFDBDE8FE8FC8
:1037B00010B5E2B004464FF4C272C44901A800F04B
:1037C000BFFE234601AA0B212320FFF773FF62B03F
:1037D00010BD10B5E2B004464FF4C272BC4901A856
:1037E00000F0AEFE234601AA0B212320FFF762FF63
:1037F00062B010BD10B5E2B004464FF4C272B549D4
:1038000001A800F09DFE234601AA0B212320FFF70B
:1038100051FF62B010BD10B5E2B004464FF4C27261
:10382000AD4901A800F08CFE234601AA0B212320FC
:10383000FFF740FF62B010BD10B5ADF5507D0446F6
:103840004FF44F72A54901A800F07AFE234601AA61
:103850000B214B20FFF72EFF0DF5507D10BD10B54D
:10386000E2B004464FF4C2729D4901A800F068FE20
:10387000234601AA0B212320FFF71CFF62B010BDD5
:1038800070B5C8252846FFF7EAFF2846FFF7D4FFA2
:10389000092406E0934850F8241028468847601E03
:1038A00044B2002CF6DC2846FFF7B5FF2846FFF7A8
:1038B000A1FF2846FFF78DFF2846FFF779FF70BD6F
:1038C00010B5ADF5CF6D04464FF44F728649CFA8C1
:1038D00000F036FE4FF44F728449684600F030FE27
:1038E0004FF4FA73CFAA0B214B20FFF7E3FE2346D8
:1038F000CFAA0B214B20FFF7DDFE4FF4FA736A4687
:103900000B214B20FFF7D6FE4FF4FA736A460B21CA
:103910004B20FFF7CFFE23466A460B214B20FFF7D3
:10392000C9FE0DF5CF6D10BD10B5ADF5636D044644
:103930004FF42C626E49DCA800F002FE4FF4DC72FA
:103940006C496EA800F0FCFD4FF4DC726A496846D1
:1039500000F0F6FD4FF4FA73DCAA0B21FA20FFF712
:10396000A9FE4FF4FA736EAA0B212820FFF7A2FEDE
:1039700023466EAA0B212820FFF79CFE64236A468B
:103980000B212820FFF796FE64236A460B2128208E
:10399000FFF790FE23466A460B212820FFF78AFE98
:1039A0000DF5636D10BD10B5ADF5267D04464FF4E1
:1039B000DC72524938A800F0C3FDDC224C49DC39E6
:1039C00001A800F0BDFDC82338AA0B212820FFF76D
:1039D00071FEC82338AA0B212820FFF76BFE23466F
:1039E00038AA0B212820FFF765FE002301AA0B212E
:1039F0001420FFF75FFE002301AA0B211420FFF71C
:103A000059FE002301AA0B211420FFF753FE0023C7
:103A100001AA0B211420FFF74DFE002301AA0B2160
:103A20001420FFF747FE002301AA0B211420FFF703
:103A300041FE002301AA0B211420FFF73BFE0023C7
:103A400001AA0B211420FFF735FE002301AA0B2148
:103A50001420FFF72FFE002301AA0B211420FFF7EB
:103A600029FE002301AA0B211420FFF723FE234681
:103A700001AA0B211420FFF71DFE0DF5267D10BDB8
:103A800010B5ADF5DC6D044640F24C421C49A5A8CA
:103A900000F056FD4FF425721A49684600F050FDBB
:103AA000C823A5AA0B216420FFF704FEC823A5AAFA
:103AB0000B216420FFF7FEFD2346A5AA0B216420FD
:103AC000FFF7F8FDC8231FE0CC040020488A000857
:103AD000BC850008C488000840870008CC8B00081B
:103AE000107500085C000020986E0008D471000872
:103AF00068600008286B0008E06C0008D45D0008CE
:103B0000F4560008405B00086A460B213C20FFF792
:103B1000D1FDC8236A460B213C20FFF7CBFD23468D
:103B20006A460B213C20FFF7C5FD0DF5DC6D10BD8D
:103B300010B5ADF58A5D044640F698026D490DF664
:103B4000A80000F0FDFC40F698026B4904A800F0C4
:103B5000F7FC234604AA0B21C820FFF7ABFD234640
:103B60000DF6A8020B21C820FFF7A4FD0DF58A5D14
:103B700010BD10B54FF47A70FFF7DAFF4FF47A708A
:103B8000FFF77EFF4FF47A70FFF70DFF4FF47A7066
:103B9000FFF7CAFE4FF47A70FFF792FE10BD10B522
:103BA000E2B004464FF4C272544901A800F0C8FCC8
:103BB000234601AA0B212320FFF77CFD62B010BD34
:103BC00010B5E2B004464FF4C2724D4901A800F0AE
:103BD000B7FC234601AA0B212320FFF76BFD62B03F
:103BE00010BD10B5E2B004464FF4C272454901A8B9
:103BF00000F0A6FC234601AA0B212320FFF75AFD63
:103C000062B010BD10B5E2B004464FF4C2723E4936
:103C100001A800F095FC234601AA0B212320FFF701
:103C200049FD62B010BD10B5E2B004464FF4C27257
:103C3000364901A800F084FC234601AA0B21232069
:103C4000FFF738FD62B010BD10B5E2B004464FF486
:103C5000C2722F4901A800F073FC234601AA0B2170
:103C60002320FFF727FD62B010BD10B5E2B0044677
:103C70004FF4C272274901A800F062FC234601AA52
:103C80000B212320FFF716FD62B010BD10B5E2B086
:103C900004464FF4C272204901A800F051FC2346AB
:103CA00001AA0B212320FFF705FD62B010BD10B55E
:103CB000E2B004464FF4C272184901A800F040FC7B
:103CC000234601AA0B212320FFF7F4FC62B010BDAC
:103CD00010B5E2B004464FF4C272114901A800F0D9
:103CE0002FFC234601AA0B212320FFF7E3FC62B03F
:103CF00010BD0000C44500085C4E00089476000822
:103D0000187800089C790008207B0008A47C000833
:103D1000287E0008AC7F000830810008B4820008CB
:103D20003884000810B5002403E0002047490855F6
:103D3000641CB4F57A7FF8D300214548FDF7A3FB56
:103D40004FF47A7042495839C86501214048FDF75F
:103D50009AFB00203F49087048800871487110BDE7
:103D600010B5FFF7DFFF10BD39485838C06DB0F50A
:103D70007A7F01D1002070470120FCE770B5002553
:103D800033485838C06DC0F57A743248007810B1A5
:103D900001283FD122E0092C1FD32C4800780228AB
:103DA00018D12A484078882814D12848807810B93A
:103DB0002648C07870B12548C178807801EB002092
:103DC00024494880214800790871012008700020AA
:103DD000487102E064201F4948711FE01D48408877
:103DE000A04211D81B484088401E1849085C03288F
:103DF00006D10125481D174988600020487108E058
:103E000064201449487104E012484079401C11496B
:103E1000487103E001200F49087000BF00BF0D4842
:103E20004079642801DBFFF77DFF284670BD38B577
:103E3000044609A00068009024B904216846FEF7F2
:103E40005EFB00E000BF00BF38BD0000B4000020F2
:103E500058000240F00400200A54300D70477047AB
:103E600070B501250026002417E0641C642C00D3E3
:103E70000025FFF72AF8012805D1FFF704F90128EA
:103E800000D1012600250020E149086000BFE0487C
:103E900000680528FBD9FEF7E2FA002DE5D130468F
:103EA00070BD2DE9F05F81460C4615461E464FF069
:103EB000000BB9F1070F14D2DFE809F0040506077B
:103EC0000B1112000EE00DE00CE0D24840690444F2
:103ED00008E0D0488169807F04FB001402E001E023
:103EE00000E000BF00BFCC492046FFF701FA0128DF
:103EF00042D1C94890F8FF0156283DD1308830B9E9
:103F0000C5484078C449097800EB01203080B6F8F4
:103F100000804FF0010BDA4620E0002705E038462C
:103F20007F1CBD49085C05F8010BB7F5FF7FF6D98A
:103F3000A8F2FF101FFA80F804EB0A00B649FFF759
:103F4000D7F9012807D1B44890F8FF01562802D1CB
:103F50000AF1010A02E04FF0000B02E0B8F5FF7F22
:103F6000DBD800BF002705E038467F1CAA49085C63
:103F700005F8010B4745F7D35846BDE8F09F7CB5DF
:103F800000200190A54800680090002501ABA24ADE
:103F900001210420FFF785FF054635B19E4E2660BE
:103FA00001212046009AFFF7AAFB28467CBD38B5C0
:103FB00000254FF4007000900020964981F8200001
:103FC0006B46954A6421FFF76CFF002831D001252C
:103FD0009148007841282CD18F484078432828D137
:103FE0008D488078412824D18B48C0784C2820D136
:103FF0008948001DFFF7C6F9044614B1854844609E
:1040000000E0002584480830FFF7BCF9044614B1ED
:104010008048446100E000257F480C30FFF7B2F98A
:10402000044614B17B48846100E00025642079498E
:10403000086095B3002577486B46774A41680020B1
:10404000FFF72FFF48B374480078412825D1724804
:104050004078532821D17048807845281DD16E487A
:10406000C078542819D16C4801796A4801736A48AC
:104070004179684841736848817966488173664828
:10408000C1796448C1736448407A6349097A00EB96
:10409000012081B25F48816001250DB300255D4894
:1040A0006B465D4A41690020FFF7FBFEC0B15A48EC
:1040B0000078412814D158484078532810D15648E8
:1040C000807850280CD15448C078542808D15248E0
:1040D00040795149097900EB01204E4908740125C6
:1040E00035B300254B486B464B4A81690020FFF7EA
:1040F000D8FEE8B148480078412819D146484078B0
:10410000492815D1444880784D2811D14248C078BB
:1041100047280DD1404840793F49097900EB0120FB
:1041200081B23C4881833C4881793A4881770125B6
:104130001DB10120374981F82000284638BD2DE9FE
:10414000F05F8146884616461D464FF0000B2888D2
:1041500040F2FF11B0FBF1FAB9F1070F11D2DFE81D
:1041600009F004050607080E0F000BE00AE009E05D
:1041700008E028488169807F08FB001802E001E020
:1041800000E000BF00BF4FF0010B002719E0002442
:1041900005E016F8012B2046641C1F490A54B4F5AB
:1041A000FF7FF6D956201C49085508EB0700FFF79A
:1041B0007FF808B94FF0000B2888A0F2FF10288084
:1041C0007F1C5745E3D3288800281DDD002405E027
:1041D00016F8012B2046641C0F490A542888A04277
:1041E000F6D804E000222046641C0B490A54B4F5BA
:1041F000FF7FF7D956200849085508EB0700FFF75D
:1042000057F808B94FF0000B5846BDE8F09F000082
:104210002C00002004070020FC040020088F000868
:1042200070472DE9F04585B004460020019094F8D0
:1042300000A000264CE0605D022843D1681C205C91
:104240008DF80800A81C205C8DF809009DF8080076
:10425000401E215C8DF80D109DF80800801E215C29
:104260008DF80C109DF80800C01E215C8DF80B1015
:104270009DF80800001F205C8DF80A009DF80900D9
:10428000012802D002281BD119E0281D215CE81C5E
:10429000205C01EB002087B201ABA24A3946042022
:1042A000FFF7FFFDDFF87C82C9F80080DDF80A0027
:1042B0000246012100904846FFF721FA01E000E0A4
:1042C00000BF00BF9DF80800284485B2701CC6B22C
:1042D0005645B0DB012005B0BDE8F0852DE9F84377
:1042E00004460D464FF000088F4800790A287DD219
:1042F000DFE800F0AA05062E555D5E849EA7A4E0C7
:10430000207820BB894890F8200001281FD18748D9
:10431000007B854989680978884218D18348407BA9
:10432000814989684978884211D18048807B7E49DB
:104330008968897888420AD17C48C07B7A49896833
:10434000C978884203D1042020704FF001087CE036
:10435000207818BB76480068007873498968097826
:1043600088421BD17248006840786F498968497853
:10437000884213D16E48006880786B4989688978D3
:1043800088420BD16A480068C07867498968C97853
:10439000884203D1022020704FF0010855E02078B8
:1043A00020B161498868FFF73CFF80464DE04CE052
:1043B0002078022821D15C488068007800065A499C
:1043C0008968497800EB014057498968897800EB92
:1043D000012055498968C9784618534840880C38E7
:1043E00080B2009050488068021D00E02CE06B46CF
:1043F00031460020FFF7A3FE804626E02078022801
:1044000015D149488068407847498968097800EBA8
:104410000127454840880A3880B2009042488068A9
:10442000821C6B4639460420FFF789FE80460CE06B
:104430002078022804D1FFF7BAFD804601202870B9
:1044400003E00020207000E000BF00BFFFF76AFC1F
:104450004046BDE8F88338B50446002502200090A8
:1044600000203449086013E0FFF788FC68B121465A
:104470006846FFF733FF38B10020FFF7D8FC9DF8FE
:10448000000010B9012500E001250020294908603D
:1044900025B928480068B0F57A7FE5D938BD38B528
:1044A0000024042000900020224908600FE0FFF75C
:1044B00065FC60B100216846FFF710FF18B10020CD
:1044C000FFF7B5FC00E0012400201A49086024B978
:1044D00018480068B0F57A7FE9D938BD10B50020DA
:1044E000144908600BE0144802780078401C124B15
:1044F0001870124850F822104FF47A7088470E480E
:104500000078142804DA0B480068B0F5FA7FEAD97D
:1045100009480078142802DB00200749087010BD04
:1045200070470000FC040020F00400200407002075
:10453000AC00002034000020B00000205C0000200F
:1045400040EA01039B0703D009E008C9121F08C015
:10455000042AFAD203E011F8013B00F8013B521E95
:10456000F9D27047064C074D06E0E06840F00103C1
:1045700094E8070098471034AC42F6D3FBF7BAFD35
:10458000308F0008508F000802E008C8121F08C1D1
:10459000002AFAD170477047002001E001C1121FC4
:1045A000002AFBD1704700001C8F0008188F0008FC
:1045B000108F00080C8F0008248F0008148F00084B
:1045C000208F00080000000000180000000000001C
:1045D000000000003C000000000000000000007E21
:1045E00000000000000000000001FF80000000004B
:1045F0000000000007FFE000000000000000000FC6
:10460000FFF000000000000000001FFFF8000000A5
:1046100000000000003FFFFC000000000000000060
:104620007FFFFE00000000000000003FFFFC0000D4
:104630000000000000003FFFFC0000000000000040
:10464000001FE7F80000000000000000000000006C
:10465000000000000000000000000000000000005A
:10466000000000000000000000000000000000004A
:10467000000000000000C00000000000000000007A
:1046800001F000000000000000000007F80000003A
:104690000000030000000FFE00000000000F80007B
:1046A000003FFF80000000003FE00000FFFFC0006F
:1046B0000000007FF80000FFFFE000000000FFFCAA
:1046C0000001FFFFF000000001FFFC0001FFFFF010
:1046D00000000000FFFC0001FFFFF0000000007D73
:1046E000F80000FFBFE000000000000000003E1FD7
:1046F000800000000000000000000000000000003A
:104700000000000000000000180000000000000091
:104710000000003C000000000000000000007E00DF
:10472000000000000000000001FF80000000000009
:1047300000000003FFC000000000000000000FFFA9
:10474000F000000000000000003FFFFC000000003F
:1047500000000000FFFFFF0000000000000001FF5C
:10476000FFFF8000000000000003FFFFFFC000000B
:104770000000000007FFFFFFE00000000000000F46
:10478000FFFFFFF00000000000000FFFFFFFF00040
:1047900000000000000FFFFFFFF00000000000001D
:1047A0000FFFFFFFF00000000000000FFFFFFFF011
:1047B00000000000000007FFFFFFE0000000000015
:1047C0000001FFC3FF80000000000000007F00FE2A
:1047D00000000000000000000000000002000000D7
:1047E00000000000000000070000000000000000C2
:1047F00000001FC00000004000000000003FF0006B
:104800000000E00000000000FFFC000003F00000DA
:10481000000003FFFE00000FFC0000000007FFFF88
:1048200000001FFF0000000007FFFF80003FFF00A7
:104830000000000FFFFF80003FFF800000000FFF1F
:10484000FF80001FFF0000000007FFFF80000F1E19
:104850000000000003FCFE0000000000000000005B
:104860000000000000000000000000000000000048
:104870000000000000000000000000000000000038
:104880000000000000000000000000000000000028
:104890000000000018000000000000000000003CC4
:1048A000000000000000000000007E00000000008A
:1048B0000000000001FF8000000000000000000771
:1048C000FFE000000000000000001FFFF8000000F3
:1048D00000000000003FFFFC00000000000000009E
:1048E0003FFFFC00000000000000007FFFFE000012
:1048F0000000000000003FFFFC000000000000007E
:10490000003FFFFC00000000000000000FE7F00087
:104910000000000000000000000000000000000097
:104920000000000000000000000000000000000087
:10493000000200000000000000000000070000006E
:10494000000000000000000F8000000000000000D8
:1049500000001FE0000000C000000000007FF00029
:104960000001F00000000001FFFC000003F800005F
:10497000000007FFFF00000FFE000000000FFFFF18
:10498000C0003FFF800000003FFFFFE0007FFFC04E
:104990000000007FFFFFF000FFFFE0000000FFFFCE
:1049A000FFF801FFFFF0000001FFFFFFFC01FFFF28
:1049B000F0000001FFFFFFFE01FFFFF0000003FF1A
:1049C000FFFFFE00FFFFE0000003FFFFFFFE007F90
:1049D0001F80000001FFFFFFFE000000000000003C
:1049E000FFFFFFFC000000000000007FFCFFF8005C
:1049F0000000000000003FF07FE000000000000029
:104A000000000000000000000000000000000000A6
:104A10000000000000000000000000000000000096
:104A20000000000000000000000000000000000086
:104A30000000000000000000000000000000000076
:104A40000018000000000000000000007E000000D0
:104A500000000000000000FF000000000000000057
:104A60000003FFC000000000000000000FFFF00086
:104A7000000000000000001FFFF800000000000020
:104A800000003FFFFC00000000000000003FFFFCB2
:104A900000000000000000007FFFFE00000000009A
:104AA0000000003FFFFC00000000000000001FE7C6
:104AB000F800000000000000000381C000000000BA
:104AC00000000000000000000000000000000000E6
:104AD00000000003000000000000000000000F8044
:104AE0000000000000000000001FC00000004000A7
:104AF000000000007FF0000000E00000000001FF67
:104B0000FC000003F80000000003FFFE00000FFEA1
:104B10000000000007FFFF00001FFF000000000F63
:104B2000FFFF80003FFF000000000FFFFF80003FFD
:104B3000FF800000000FFFFF80001FFF000000004B
:104B400007FFFF00000F1C0000000001F8FE00003E
:104B5000000000000000000000000000000000183D
:104B6000000000000000000000003C000000000009
:104B700000000000007E00000000000000000001B6
:104B8000FF80000000000000000003FFC0000000E4
:104B900000000000000FFFF0000000000000000017
:104BA0003FFFFC0000000000000000FFFFFF0000CE
:104BB000000000000001FFFFFF8000000000000077
:104BC00003FFFFFFC000000000000007FFFFFFE041
:104BD0000000000000000FFFFFFFF00000000000D9
:104BE000000FFFFFFFF00000000000000FFFFFFFBD
:104BF000F00000000000000FFFFFFFF000000000C9
:104C000000000FFFFFFFF000000000000007FFFFA3
:104C1000FFE000000000000001FFC3FF8000000073
:104C2000000000003F00FC00000000000000000049
:104C30000000000000000000000000000000000074
:104C40000000000000000000000000000000400024
:104C5000000000000000000001E000000000000073
:104C600000000003F80000000000020000000FFE3A
:104C70000000000000078000003FFF8000000000EF
:104C80001FE000007FFFC0000000007FF00000FF79
:104C9000FFE000000000FFF80001FFFFF00000004F
:104CA00001FFFC0001FFFFF000000001FFFC00011C
:104CB000FFFFF000000000FFF80000FFFFE0000031
:104CC0000000000000007F1FC00000000000000086
:104CD00000000000000000000000000000000000D4
:104CE00000000000000000000000001800000000AC
:104CF0000000000000007E00000000000000000036
:104D000000FF00000000000000000003FFC00000E2
:104D10000000000000000FFFF00000000000000095
:104D2000001FFFF800000000000000003FFFFC0033
:104D3000000000000000003FFFFC00000000000039
:104D400000007FFFFE00000000000000003FFFFCAD
:104D500000000000000000001FE7F8000000000055
:104D60000000000781E000000000000000000000DB
:104D70000000000000000000000000000000000033
:104D800000004000000000000000000000E0000003
:104D90000000000000000001F00000000000000022
:104DA000000007FC0000000000000000000FFE00F3
:104DB00000000000000000003FFF80000000000332
:104DC000000000FFFFE00000000007800003FFFF7D
:104DD000F8000000001FC00007FFFFFC00000000FB
:104DE0007FF0001FFFFFFE00000001FFFC001FFF1F
:104DF000FFFF00000003FFFE003FFFFFFF800000F9
:104E000007FFFF007FFFFFFF8000000FFFFF807F95
:104E1000FFFFFFC000000FFFFF807FFFFFFFC0000C
:104E2000000FFFFF803FFFFFFF80000007FFFF0034
:104E30003FFFFFFF00000001F8FE001FFF3FFE00E4
:104E400000000000000007FC0FF800000000000058
:104E50000000000000000000000000000000400012
:104E600000000000020000000040000000000002FE
:104E700000000000400000000000020000000040B0
:104E8000000008000002000000004000003C00009C
:104E900002000000004000007E0000020000000050
:104EA000400001FF80000200000000400007FFE01A
:104EB00000020000000040001FFFF8000200000098
:104EC0000040003FFFFC00020000000040003FFFE8
:104ED000FC00020000000040007FFFFE0002000016
:104EE000000040003FFFFC00020000000040003FC7
:104EF000FFFC00020000000040000FC3F0000200B1
:104F0000000000400000000000020000000040001F
:104F1000000000000200000000400000000000024D
:104F2000000000004000000000000200000001E05E
:104F300000000000000200000003F8000000000074
:104F4000020000000FFE0000000000078000003F8C
:104F5000FF80000000001FE000007FFFC000000095
:104F6000007FF00000FFFFE000000000FFF80001FC
:104F7000FFFFF000000001FFFC0001FFFFF0000058
:104F80000000FFFC0001FFFFF0000000007FF800C0
:104F900000FFFFE000000000020000003E4F800024
:104FA00000000002000000004000000000000200BD
:104FB0000000004000001800000200000000400057
:104FC000003C00000200000000400000FF00000262
:104FD00000000000400001FF8000020000000040CF
:104FE0000007FFE000020000000040001FFFF80083
:104FF000020000000040007FFFFE000200000000F1
:105000004000FFFFFF0002000000004003FFFFFF21
:10501000C002000000004007FFFFFFE002000000A8
:10502000004007FFFFFFE00200000000400FFFFF0D
:10503000FFF00200000000400FFFFFFFF002000041
:105040000000400FFFFFFFF00200000000400FFFD4
:10505000FFFFF002000000004007FFFFFFE002003A
:105060000000004003FFE7FFC00200000000400016
:105070007F81FE00020000000040000000000002EE
:105080000000000040000000000007000000004099
:1050900000000000000FC000000040000000000001
:1050A0003FF0000000E00000000000FFFC000003F3
:1050B000F80000000003FFFE00000FFC00000000ED
:1050C00007FFFF00001FFF000000000FFFFF800030
:1050D0003FFF000000000FFFFF80003FFF80000047
:1050E000000FFFFF80001FFF0000000007FFFF0010
:1050F0000000480000000001FAFE0000004000002F
:10510000000000020000000040000000000002005B
:10511000000000400000000000020000000040000D
:10512000000000000200000000400000000000023B
:1051300000000000400000180000020000000040D5
:1051400000007E00000200000000400000FF0000A0
:105150000200000000400003FFC000020000000049
:1051600040000FFFF000020000000040001FFFF8A9
:1051700000020000000040003FFFFC0002000000B1
:105180000040007FFFFE00020000000040003FFFE3
:10519000FC00020000000040003FFFFC0002000095
:1051A000000040000FE7F000020000000040000097
:1051B00000000002000000004000000000000200AB
:1051C000000000400000000000020000000040005D
:1051D0000000000007000000004000000000000F79
:1051E000C00000004000000000003FE0000000E0C0
:1051F00000000000007FF8000001F0000000000146
:10520000FFFE000007FC0000000007FFFF80001FFA
:10521000FF000000001FFFFFC0007FFF80000000B4
:105220003FFFFFF000FFFFE0000000FFFFFFF8017D
:10523000FFFFE0000000FFFFFFFC01FFFFF00000A8
:1052400001FFFFFFFE01FFFFF0000003FFFFFFFE75
:1052500001FFFFE0000003FFFFFFFE007F7FC000B3
:105260000001FFFFFFFE00004000000001FFFFFF04
:10527000FC00004000000000FFFFFFF800004000BD
:105280000000003FF27FE000004000000000030249
:105290000600000040000000000002000000004086
:1052A00000000000000200000000400000000000BC
:1052B00002000000004000000000000200000000AA
:1052C00040000000000002000000004000003C0020
:1052D0000002000000004000007E0000020000000C
:1052E00000400001FF80000200000000400007FFB6
:1052F000E000020000000040000FFFF0000200008C
:10530000000040001FFFF800020000000040003FC6
:10531000FFFC00020000000040007FFFFE000200D2
:1053200000000040003FFFFC0002000000004000C1
:105330003FFFFC00020000000040000FC3F000022D
:1053400000000000400000000000020000000040DB
:10535000000000000002000000004000000000000B
:1053600007000000004000000000001FC000000017
:105370004000000000003FF0000000E000000000DE
:1053800000FFFC000003F00000000003FFFE00002F
:105390000FFC0000000007FFFF00001FFF000000DF
:1053A000000FFFFF80003FFF000000000FFFFF80A5
:1053B000003FFF800000000FFFFF80001FFF000084
:1053C000000007FFFF00000E5C0000000001FA7CF7
:1053D000000000400000000000020000000040004B
:1053E0000018000002000000004000003C00000225
:1053F00000000000400000FF00000200000000402C
:105400000001FF80000200000000400007FFE000F4
:10541000020000000040001FFFF800020000000032
:1054200040007FFFFE0002000000004001FFFFFF80
:105430008002000000004003FFFFFFC002000000E8
:10544000004007FFFFFFE00200000000400FFFFFE9
:10545000FFF00200000000400FFFFFFFF00200001D
:105460000000400FFFFFFFF00200000000400FFFB0
:10547000FFFFF00200000000400FFFFFFFF00200FE
:105480000000004007FFFFFFE002000000004003B3
:10549000FFE7FFC0020000000040007F00FE0002A6
:1054A000000000004000000000000200000000407A
:1054B00000000000000200000000400000000000AA
:1054C0000200000000400000000000020000000197
:1054D000E000000000000200000003F800000000EF
:1054E00000030000000FFE00000000000F8000001D
:1054F0003FFF80000000001FE00000FFFFC0000031
:1055000000007FF80000FFFFE000000000FFFC004B
:1055100001FFFFF000000001FFFC0001FFFFF000B1
:10552000000000FFFC0001FFFFF0000000007FF81A
:105530000000FFFFE000000000020000003E4F00FE
:105540000000000002000000004000000000000217
:1055500000000000400000180000020000000040B1
:1055600000003C00000200000000400000FF0000BE
:105570000200000000400003FFC000020000000025
:1055800040000FFFF000020000000040001FFFF885
:1055900000020000000040003FFFFC00020000008D
:1055A0000040003FFFFC00020000000040007FFFC1
:1055B000FE00020000000040003FFFFC000200006F
:1055C000000040001FFFF80002000000004000073C
:1055D00081E0000200000000400000000000020026
:1055E0000000004000000000000200000000400039
:1055F000000000000200000000E0000000000002C7
:1056000000000003F000000000000200000007FCA2
:105610000000000000020000001FFE00000000006B
:10562000020000007FFF800000000007000001FF73
:10563000FFE0000000000F800007FFFFF8000000FF
:10564000003FE0000FFFFFFE00000000FFF8001F1A
:10565000FFFFFF00000001FFFE003FFFFFFF800093
:105660000003FFFF007FFFFFFF80000007FFFF80B8
:105670007FFFFFFFC000000FFFFF807FFFFFFFC025
:1056800000000FFFFF807FFFFFFF80000007FFFF8C
:10569000803FFFFFFF80000003FFFE001FFFFFFFB2
:1056A0000000000002000007FE4FFC0000000002A6
:1056B0000000000040000000000002000000004068
:1056C0000000000000020000000040000000000098
:1056D0000200000000400000000000020000000086
:1056E0004000000000000200000000400000000038
:1056F000000200000000000000C0000000000000E8
:1057000000000001C000000000000000000003C015
:105710000000000000000000000640000000000043
:10572000000000000C400000000000000000001815
:105730004000000000000000000030600000000099
:105740000000000000606000000000000000000099
:10575000C020000000000000000003003000000036
:105760000000000000060010000000000000000023
:1057700008001800000000000000003000080000D1
:1057800000000000000060000C00000000000000AD
:105790000080000600000000000000018000020000
:1057A00000000000000003000003000000000000F3
:1057B0000002000001800000000000000600000060
:1057C000C0000000000000040000006000000000B5
:1057D00000000400000020000000000000040000A1
:1057E000001000000000000004000000080000009D
:1057F000000000040000000400000000000006009B
:105800000000060000000003FFF600000002000098
:105810000000003FFFFFF800030000000000FFFF52
:10582000FFFF00010000000003FFFFFFC000018038
:1058300000000007FFFFFFE00001800000000FFFF5
:10584000FFFFF00000800000000FFFFFFFF00000EE
:10585000800000000003FFBFF00000800000000097
:1058600000FE03E0000080000000000020000000B7
:105870000080000000000000000000018000000027
:105880000000000000000100000000000000000017
:105890000001000000000000000000000200000005
:1058A00000000000000000060000000000000000F2
:1058B00000000400000000001F0003FFFFFC0000C8
:1058C00000000007FFFFFFFFFFF00000000000FFE7
:1058D000FFFFFFFFFE00000000001FFFFFFFFFFFB4
:1058E000C00000000000FFFFFFFFFFF80000000005
:1058F0000000FFFFFFFFFC0000000000000007FFAA
:10590000FFFF00000000000000030FFFFFE00000A9
:105910000000000003803FFFFE00000000000003C5
:10592000C001FFFFFE000000000003600000000057
:105930000000000000022000000000000000000045
:105940000218000000000000000000060C0000002B
:10595000000000000000060600000000000000003B
:105960000004030000000000000000000C008000A4
:1059700000000000000000080060000000000000BF
:105980000000180010000000000000000010000CD3
:1059900000000000000000003000060000000000D1
:1059A0000000002000030000000000000000400094
:1059B000018000000000000000C00000C0000000E6
:1059C0000000000180000040000000000000030013
:1059D0000000600000000000000200000020000045
:1059E000000000000400000020000000000000088B
:1059F0000000002000000000000010000000200057
:105A00000000000000300000002000000000000046
:105A10006000000060000000000000400000004F37
:105A2000FFC000000000C0000FFFFFFE00000000EC
:105A3000008000FFFFFFFF0000000001800003FF67
:105A4000FFFFC000000001800007FFFFFFE0000033
:105A5000000100000FFFFFFFF00000000100000F39
:105A6000FFFFFFF00000000100000FFFFFC000007B
:105A7000000001000007C07F80000000000100005E
:105A800000000E0000000000018000000000000087
:105A90000000000080000000000000000000008006
:105AA00000000000000000000000C0000000000036
:105AB0000000000000600000000000000000000086
:105AC00020000000000000000000003FFFFF8000F9
:105AD000780000000007FFFFFFFFFFE0000000006C
